:100000000C948F000C94B7000C94B7000C94B700BC
:100010000C94B7000C94B7000C94B7000C94B70084
:100020000C94B7000C94B7000C94CA030C943C04D5
:100030000C94B7000C94B7000C94B7000C94B70064
:100040000C94B7000C94B7000C94B7000C94B70054
:100050000C94B7000C94B7000C94B7000C947A067B
:100060000C94B7000C94B7000C94B7000C94B70034
:100070000C94B7000C94B7000C94B7000C94B70024
:100080000C94B7000C94B7000C94B7000C94B70014
:100090000C94B7000C94B7000C94B7000C94B70004
:1000A0000C94B7000C94B7000C94B700080B000236
:1000B0000202010009040000010202000005240000
:1000C0001001052401010104240206052406000193
:1000D0000705810310004009040100020A00000026
:1000E00007050202400000070583024000000403E8
:1000F000090412010002EF02014041234180000186
:100100000102030141726475696E6F204C4C43001B
:1001100041726475696E6F2059756E00C4061124B2
:100120001FBECFEFDAE0DEBFCDBF22E0AEE4B1E02C
:1001300001C01D92A730B207E1F711E0A0E0B1E0E5
:10014000E2E2F2E102C005900D92AE34B107D9F7B8
:1001500010E0CFE8D0E004C02197FE010E9404091E
:10016000CE38D107C9F70E94EB060C940F090C9406
:10017000000020917001211103C08FEF9FEF0895BF
:100180005FB7F89422E02093E9002091F20030E07C
:100190001216130614F421E030E0422FFC0184E62D
:1001A000415038F0289880936F019091F10091931D
:1001B000F7CF2115310521F08091F200882319F045
:1001C0005FBFC90108958BE68093E800F9CF2FB790
:1001D000F89483E08093E9009091E800892F807281
:1001E00095FF04C09091F20080E4891B2FBF089511
:1001F0008091670181110DC082E08093630184E0EA
:1002000080936401109266011092650181E08093F1
:10021000670183E691E0089540915D0150915E0190
:1002200020915B0130915C0142175307B4F4909127
:10023000E8009570E1F39091E80092FD19C0809379
:10024000F10080915D0190915E0101968F73992775
:10025000892B19F48EEF8093E80080915D019091D5
:100260005E01019690935E0180935D0181E00895A7
:1002700080E00895DF92EF92FF920F931F93CF9348
:10028000DF93D82EF92EE42E062F10E0C801019638
:10029000880F0E940C0183E00E940C01CD2DDF2D00
:1002A0000C0F1D1FC017D10789F0E7FE03C0FE0128
:1002B000849101C088810E940C01F82E80E00E9488
:1002C0000C018F2121968111EDCF01C081E0DF91DA
:1002D000CF911F910F91FF90EF90DF900895DF92E3
:1002E000EF92FF920F931F93CF93DF93D82E8A0143
:1002F0007B01E40EF51EEB01CE15DF0571F0D7FE94
:1003000003C0FE01849101C088810E940C012196E6
:100310008111F2CF8FEF9FEF01C0C801DF91CF9124
:100320001F910F91FF90EF90DF9008950F931F930F
:10033000CF93DF931F92CDB7DEB782E0898342E48B
:1003400050E06CEA70E080E80E946F010E94F800C3
:10035000DC0112960D911C9113970115110589F07E
:10036000D801ED91FC910280F381E02DBE016F5F19
:100370007F4FC801099597FD04C0F80100851185DC
:10038000ECCF89810F90DF91CF911F910F9108954C
:10039000615030F02091F100FC0120830196F8CFEC
:1003A000289884E680936F010895CF92DF92EF92B0
:1003B000FF920F931F93CF93DF936C017A018B0110
:1003C000C0E0D0E0CE15DF0581F0D8016D918D0140
:1003D000D601ED91FC910190F081E02DC6010995C7
:1003E000892B11F02196EECF7E01C701DF91CF91CD
:1003F0001F910F91FF90EF90DF90CF900895CF93D2
:10040000DF931F92CDB7DEB76983DC01ED91FC91DC
:100410000280F381E02D41E050E0BE016F5F7F4F2D
:1004200009950F90DF91CF91089583E08093E900C3
:100430008091F200882319F08AE38093E800089500
:100440000E94E70090E00895CF93DF931F92CDB70D
:10045000DEB7FC018485958597FD05C02FEF3FEF42
:10046000358724870BC0CE0101960E94B900019701
:1004700019F4898190E002C08FEF9FEF0F90DF9118
:10048000CF9108950F931F93CF93DF931F92CDB712
:10049000DEB78C01FC018485958597FF0EC0CE01E7
:1004A00001960E94B900019719F4898190E002C079
:1004B0008FEF9FEFF80195878487F80184859585F4
:1004C0000F90DF91CF911F910F910895FC018485CA
:1004D000958597FD0BC09FB7F89482E08093E90063
:1004E0008091F2009FBF90E0019608959FB7F89425
:1004F00082E08093E9008091F2009FBF90E0089530
:10050000089580E090E008953FB7F89480915301FA
:1005100090915401A0915501B091560126B5A89B28
:1005200005C02F3F19F00196A11DB11D3FBFBA2F85
:10053000A92F982F8827820F911DA11DB11DBC01E5
:10054000CD0142E0660F771F881F991F4A95D1F7AA
:1005500008958F929F92AF92BF92CF92DF92EF92C7
:10056000FF926B017C010E9484024B015C01C1146B
:10057000D104E104F104F1F00E948402DC01CB011A
:1005800088199909AA09BB09883E9340A105B105BC
:1005900070F321E0C21AD108E108F10888EE880E54
:1005A00083E0981EA11CB11CC114D104E104F10424
:1005B00019F7DDCFFF90EF90DF90CF90BF90AF9015
:1005C0009F908F9008958F929F92AF92BF92CF92FB
:1005D000DF92EF92FF920F931F93CF93DF936C0103
:1005E0007B018A0180910B01882309F45CC0809112
:1005F0007001882309F457C08091610180FF05C014
:100600008091E00082608093E000E801B12C8AEFE5
:10061000A82E93E0892E2AE3922E209711F4BB2076
:10062000D9F10E94E70081110AC0AA94AA20D9F149
:1006300061E070E080E090E00E94A902EECF282FF8
:1006400030E0C217D3070CF48C2F9FB7F894809238
:10065000E9002091E80025FF1DC0282F30E0C21BD3
:10066000D30BF701815020F041914093F100FACF74
:10067000E20EF31EBB2019F09092E8000AC08091B0
:10068000E80085FD07C09092E800BB24B394209752
:1006900009F0B12C9FBFC1CF5D9884E680936201C1
:1006A0001016110644F081E090E0F60193838283F6
:1006B00080E090E001C0C801DF91CF911F910F91C0
:1006C000FF90EF90DF90CF90BF90AF909F908F9072
:1006D00008952FB7F89460914F0170915001809167
:1006E0005101909152012FBF0895009769F0FC01CC
:1006F00001900020E9F73197AF01481B590BBC016D
:1007000081E791E00C94E30280E090E008958F92FD
:100710009F92AF92BF920F931F93CF93DF93CDB76A
:10072000DEB7A1970FB6F894DEBF0FBECDBF19A2FA
:10073000423008F44AE08E010F5D1F4F842E912C49
:10074000A12CB12CA50194010E94E208E62FB90169
:10075000CA0101501109EA3014F4E05D01C0E95CFE
:10076000D801EC93232B242B252B61F7C8010E9481
:100770007503A1960FB6F894DEBF0FBECDBFDF9113
:10078000CF911F910F91BF90AF909F908F90089540
:100790000E940A091F920F920FB60F9211248F9395
:1007A0009F938091E1009091E100937F9093E1000D
:1007B00083FF0FC01092E90091E09093EB0010923C
:1007C000EC0092E39093ED001092700198E090930A
:1007D000F00082FF20C093E09093E9009091F20036
:1007E000992319F09AE39093E8009091620199237C
:1007F00039F090916201915090936201992389F1AF
:1008000090916F01992339F090916F0191509093DD
:100810006F01992341F184FF10C08091E2008E7E28
:1008200081608093E2008091E1008F7E8093E100FF
:10083000809161018E7E806111C080FF16C0809121
:10084000E2008E7E80618093E2008091E1008E7EE6
:100850008093E100809161018E7E816080936101CF
:1008600004C05D9ACDCF289AD6CF9F918F910F90DB
:100870000FBE0F901F9018951F920F920FB60F92F8
:100880001124CF92DF92EF92FF920F931F932F9339
:100890003F934F935F936F937F938F939F93AF9308
:1008A000BF93EF93FF93CF93DF93CDB7DEB76C97F2
:1008B000DEBFCDBF1092E9008091E80083FFFBC14D
:1008C00068E0CE0145960E94C80182EF8093E8005F
:1008D0008D8987FF05C09091E80090FFFCCF03C091
:1008E0009EEF9093E800982F907609F0C6C09E89FD
:1008F0004F89588D2F89F88C91110CC0803829F4BC
:10090000809160018093F10002C01092F10010927A
:10091000F10045C1913051F4811141C1413051057F
:1009200009F03DC1809160018D7F0BC0933061F46F
:10093000811135C14130510509F031C1809160010B
:100940008260809360012BC1953049F48091E8006A
:1009500080FFFCCF822F80688093E30020C1963017
:1009600009F05EC00B8D1C8D22E01092E900109200
:100970005E0110925D01F21232C010925C01109281
:100980005B010E94960199E0BE016F5F7F4FDB0122
:10099000E92F1D92EA95E9F79983FA8291E09E8307
:1009A00090EA98879AEF998720915D0130915E01D6
:1009B000275F3F4F3C832B838D831092E900109279
:1009C0005E0110925D0110935C0100935B0149E0B0
:1009D00050E080E00E946F010E949601E0C01093F9
:1009E0005C0100935B010E94F800DC0112960D91FE
:1009F0001C9113970115110509F4BBC0D801ED91A5
:100A0000FC910480F581E02DBE016B5E7F4FC80133
:100A10000995009709F0C7C0F80100851185EACF54
:100A2000973009F445C1983021F481E08093F100BA
:100A3000B6C0993009F0B3C0837009F039C1EDE058
:100A4000F1E081E031E096E32081211109C08EE7D9
:100A50008093EA001092EA008F89809370019FC012
:100A60008093E9003093EB0021912093EC00909368
:100A7000ED008F5F873041F7EACF8B8D9C8D109210
:100A8000E90010925E0110925D0190935C018093E9
:100A90005B01898D811153C08E899D89913A49F4FA
:100AA000813209F005C147E050E064E071E080E088
:100AB000BBC0913209F0FCC0833269F48F89988DF4
:100AC000A0E0B0E08093000190930101A0930201A7
:100AD000B093030164C0803269F48091E80082FF22
:100AE000FCCF67E084E091E00E94C8018BEF809327
:100AF000E80055C0823209F052C08F8980930B0103
:100B0000EEEFFFE7859194918B3F9C4D19F0E0E06B
:100B1000F8E002C0EEEFFAE0809104019091050147
:100B2000A0910601B0910701803B9440A105B10559
:100B300009F09EC080910B0180FF79C099C00E948E
:100B4000F800FC01028113810115110509F4B0C000
:100B5000D801ED91FC910190F081E02DBE016B5E1A
:100B60007F4FC801099581111AC0F80100851185D0
:100B7000EBCFF1E0FF1609F44EC0F3E0FF1298C08E
:100B80008F89882309F44AC0823089F440E86BE0F9
:100B900080E191E00E943A01882309F489C08EEF38
:100BA0008093E80088C018161906CCF381C0813004
:100BB00029F440E86BE084E091E0ECCF833009F069
:100BC00077C00E94F800DC011296ED90FC9013971C
:100BD0008E010F5F1F4F6801E114F10479F0D70116
:100BE000ED91FC910680F781E02DB801C7010995D0
:100BF000080F111DF701E084F184EECFD8011C929B
:100C0000F60101900020E9F73197BF016C197D09C9
:100C100040E0C601BFCF62EF70E002C06EEE70E050
:100C2000FB01449150E080E80E946F01B8CFEE3F95
:100C30002AE0F20751F0808191818737A7E79A0770
:100C400021F09093FF0A8093FE0A87E797E791834C
:100C500080838091600080935F019BE088E10FB604
:100C6000F894A895809360000FBE9093600097CF92
:100C7000808191818737974709F091CFA89580911E
:100C8000600088618093600080915F0180936000C4
:100C9000EE3FBAE0FB0739F08091FE0A9091FF0A1F
:100CA000918380837CCF1092FF0A1092FE0A77CF47
:100CB00081E28093EB006C960FB6F894DEBF0FBE16
:100CC000CDBFDF91CF91FF91EF91BF91AF919F91F8
:100CD0008F917F916F915F914F913F912F911F91D4
:100CE0000F91FF90EF90DF90CF900F900FBE0F907D
:100CF0001F9018951F920F920FB60F9211242F93E9
:100D00003F938F939F93AF93BF9380914F019091A7
:100D10005001A0915101B091520130914E0123E058
:100D2000230F2D3720F40196A11DB11D05C026E823
:100D3000230F0296A11DB11D20934E0180934F01F8
:100D400090935001A0935101B093520180915301AF
:100D500090915401A0915501B09156010196A11DA9
:100D6000B11D8093530190935401A0935501B0930A
:100D70005601BF91AF919F918F913F912F910F900D
:100D80000FBE0F901F901895E1E7F1E013821282D9
:100D900088EE93E0A0E0B0E084839583A683B783D8
:100DA00087E191E0918380838FEF9FEF9587848720
:100DB000E1ECF1E016821782108611861286138606
:100DC0001486158616861786108A118A128A138A47
:100DD000148A158A0895789484B5826084BD84B598
:100DE000816084BD85B5826085BD85B5816085BD26
:100DF00080916E00816080936E00109281008091DE
:100E00008100826080938100809181008160809365
:100E100081008091800081608093800080919100AA
:100E20008260809391008091910081608093910015
:100E3000809190008160809390008091C1008460D7
:100E40008093C1008091C10082608093C100809135
:100E5000C10081608093C1008091C3008160809354
:100E6000C3008091C00082608093C0008091C20066
:100E700081608093C20080917A00846080937A00C0
:100E800080917A00826080937A0080917A008160FC
:100E900080937A0080917A00806880937A00109223
:100EA000700110926001109261018091D700816001
:100EB0008093D70080EA8093D80089B5806189BD8E
:100EC00089B5826089BD09B400FEFDCF61E070E0A4
:100ED00080E090E00E94A9028091D8008F7C806120
:100EE0008093D8008091E000807F8093E000809123
:100EF000E1008E7E8093E1008DE08093E200559AC0
:100F0000209A10920302109204021092050210928D
:100F100006021092C3011092C4011092C5011092F2
:100F2000C6010E9469036B017C014B015C0128EB47
:100F3000820E2BE0921EA11CB11C0E9469036C154D
:100F40007D058E059F0528F086169706A806B9062A
:100F5000A0F768EE73E080E090E00E94A9028FEFB6
:100F60009FEF90937E0180937D010E9469036093BF
:100F7000C3017093C4018093C5019093C60185E2BB
:100F800091E00E9475030E9469036B017C014B0193
:100F90005C013AE0830E911CA11CB11C0E94690304
:100FA0006C157D058E059F0528F086169706A80608
:100FB000B906A0F781E08093D701C0E0D0E084EFCC
:100FC000882E99249394A12CB12C0E946903672B3D
:100FD000682B692B41F40E94690362307105810519
:100FE000910508F4E3C00E946903C0905701D090B6
:100FF0005801E0905901F0905A016C157D058E055D
:101000009F0540F4609357017093580180935901F4
:1010100090935A01C0905701D0905801E090590127
:10102000F0905A019B01AC012C193D094E095F0952
:1010300069017A013AEFC316D104E104F10408F41E
:10104000B5C06093570170935801809359019093F4
:101050005A018092CF019092D001A092D101B0921A
:10106000D2011092D3011092D4011092D5011092A6
:10107000D6018091C7019091C801A091C901B0919A
:10108000CA018093CB019093CC01A093CD01B09382
:10109000CE010E9469036093C7017093C8018093D9
:1010A000C9019093CA010E9469036093C3017093C0
:1010B000C4018093C5019093C6010E9469036B012E
:1010C0007C0186E391E00E9475034AE061E070E0F4
:1010D00080E090E00E9487038DE391E00E94750319
:1010E0004AE0C701B6010E9487038FE391E00E94A6
:1010F00075038091C7019091C801A091C901B09179
:10110000CA01A7019601281B390B4A0B5B0BCA01C8
:10111000B9014AE00E9487038FE391E00E947503C2
:101120008091C7019091C801A091C901B091CA01F5
:10113000C090CB01D090CC01E090CD01F090CE01D9
:10114000BC01CD016C197D098E099F094AE00E94FE
:10115000870381E491E00E9475030E9469034AE0DD
:101160000E94870383E491E00E9475038AE491E082
:101170000E9475030E9469032B013C016B017C01F5
:1011800032E0C30ED11CE11CF11C0E9469036415FE
:1011900075058605970580F40E9469036093C70171
:1011A0007093C8018093C9019093CA01209709F4F4
:1011B0000CCF0E94000009CFC616D706E806F90634
:1011C00020F7EACFA1E21A2EAA1BBB1BFD010DC01E
:1011D000AA1FBB1FEE1FFF1FA217B307E407F507E7
:1011E00020F0A21BB30BE40BF50B661F771F881FC3
:1011F000991F1A9469F760957095809590959B0159
:10120000AC01BD01CF010895EE0FFF1F0590F491D1
:10121000E02D099481E090E0F8940C940F09F89483
:02122000FFCFFE
:10122200FFFFFFFF00E100000000000000C180811D
:1012320000000000000000FF01E302200215026628
:101242000224024202564D4450565F317C315F56B1
:101252004D4450560A00564D4450455F003A323ACA
:0E126200007C005F564D445045000D0A000010
:00000001FF
