:100000000C9462000C948A000C948A000C948A0070
:100010000C948A000C948A000C948A000C948A0038
:100020000C948A000C948A000C948A000C948A0028
:100030000C948A000C948A000C948A000C948A0018
:100040000C94D90A0C948A000C94A10A0C947B0A93
:100050000C948A000C948A000C948A000C948A00F8
:100060000C948A000C948A000000000024002700F1
:100070002A0000000000250028002B0000000000DE
:1000800023002600290004040404040404040202DA
:100090000202020203030303030301020408102007
:1000A0004080010204081020010204081020000012
:1000B0000008000201000003040700000000000027
:1000C0000000340B11241FBECFEFD8E0DEBFCDBF40
:1000D00023E0AAE5B2E001C01D92A039B207E1F722
:1000E00012E0A0E0B1E0E8ECF6E102C005900D926C
:1000F000AA35B107D9F710E0C2E6D0E004C02197D5
:10010000FE010E945C0BC136D107C9F70E94720A3A
:100110000C94620B0C9400000895DC01ED91FC91AD
:100120000190F081E02D09950895CF92DF92EF9232
:10013000FF920F931F93CF93DF938C01DB01D0E0ED
:10014000C0E07A0181E0E81AF108452BA1F0F8013E
:1001500080819181FC01208131816D01FFEFCF1AF7
:10016000DF0A6C91C801F9010995892B21F02196CC
:10017000A701D601E6CFCE01DF91CF911F910F915C
:10018000FF90EF90DF90CF90089508956FEF7FEF8D
:1001900081E090E00E94CD000895019709F0089554
:1001A0006F3F7F4FE1F7E3EFF2E01382128288EEB8
:1001B00093E0A0E0B0E084839583A683B7838CE0CE
:1001C00091E09183808385EC90E09587848784EC2F
:1001D00090E09787868780EC90E0918B808B81EC14
:1001E00090E0938B828B82EC90E0958B848B86ECF5
:1001F00090E0978B868B118E128E138E148ECFCF3C
:10020000FC01938D848D981720F4891B990B01971D
:1002100008952FE330E0291B3109820F932F911DA0
:100220000895FC01918D828D981761F0A28DAE0F1B
:10023000BF2FB11D5D968C91928D9F5F9F73928FA2
:1002400090E008958FEF9FEF0895FC01918D828DCE
:10025000981731F0828DE80FF11D858D90E008959B
:100260008FEF9FEF0895FC01218D30E0205C3F4F20
:10027000828DA901481B5109CA018F7399270895DE
:1002800083EF92E00E94330121E0892B09F420E002
:10029000822F0895CF92DF92EF92FF921F93CF9318
:1002A000DF93EC016A017B01122F60E079E08DE3BE
:1002B00090E0A70196010E943A0B215031094109B3
:1002C00051095695479537952795E889F98982E030
:1002D0008083C11481EED806E104F10421F02115D8
:1002E00080E1380798F0E889F989108260E874E8BD
:1002F0008EE190E0A70196010E943A0B215031094E
:10030000410951095695479537952795EC85FD8507
:100310003083EE85FF852083188EEC89FD8910835C
:10032000EA89FB89808180618083EA89FB898081F9
:1003300088608083EA89FB89808180688083EA897C
:10034000FB8980818F7D8083DF91CF911F91FF900A
:10035000EF90DF90CF900895FC01A48DA80FB92FE6
:10036000B11DA35ABF4F2C91848D90E001968F73DD
:100370009078848FA689B7892C93A089B1898C91B4
:10038000837080648C93938D848D98130895028874
:10039000F389E02D80818F7D8083F8CF0F931F93A9
:1003A000CF93DF93EC0181E0888F9B8D8C8D981724
:1003B000B1F0062F8B8D90E001968F739078182FF7
:1003C0008C8D81131EC00FB607FCFACFE889F9891E
:1003D000808185FFF5CFCE010E94AC01F1CFE88985
:1003E000F989808185FFE5CF9FB7F894EE89FF8971
:1003F0006083E889F98980818370806480839FBFEE
:1004000010C0EB8DEC0FFD2FF11DE35AFF4F008361
:100410009FB7F8941B8FEA89FB8980818062808373
:100420009FBF81E090E0DF91CF911F910F910895E0
:10043000CF93DF93EC01888D811104C00DC00FB6FE
:1004400007FE0DC0EA89FB89808185FDF8CFA88968
:10045000B9898C9186FFF3CFDF91CF910895808188
:1004600085FFF0CFE889F989808185FFEBCFCE0148
:100470000E94AC01E7CF80E090E0892B21F00E9440
:100480004001811101C008950E940000FCCF83301B
:10049000B1F060F08730E9F0883009F1843021F55F
:1004A000E0E8F0E080818F7D80830895813069F0FD
:1004B000823021F484B58F7D84BD08950895E0E8ED
:1004C000F0E080818F778083089584B58F7784BD35
:1004D0000895E0EBF0E080818F7780830895E0EB72
:1004E000F0E080818F7D80830895CF93DF93282F64
:1004F00030E0F901E255FF4F8491F901E656FF4FD4
:10050000D491F901EA57FF4FC491CC23B1F0811186
:100510000EC0EC2FF0E0EE0FFF1FE458FF4FA59147
:10052000B491EC91ED2331F490E080E008C00E949A
:100530004702EFCF81E090E002C090E080E0DF91E1
:10054000CF9108951F93CF93DF93282F30E0F901C7
:10055000E255FF4F8491F901E656FF4F1491F901DE
:10056000EA57FF4FC491CC23A9F0D62F811116C0B2
:10057000EC2FF0E0EE0FFF1FEE58FF4FA591B49166
:100580008FB7F894D1110DC09C91E12FE095E9232C
:10059000EC938FBFDF91CF911F9108950E94470286
:1005A000E7CFEC91E12BEC93F4CFCF93DF9390E086
:1005B000FC01E656FF4F24918A579F4FFC0184911E
:1005C000882319F190E0880F991FFC01E859FF4F2B
:1005D000A591B491FC01EE58FF4FC591D4916623CB
:1005E00049F06230A9F08FB7F894EC91E22BEC93CC
:1005F0008FBF0BC09FB7F8948C91E22FE0958E23AC
:100600008C938881E823E8839FBFDF91CF91089581
:100610009FB7F8943C91822F809583238C93E88137
:10062000E22BE8839FBFF1CF789484B5826084BDCC
:1006300084B5816084BD85B5826085BD85B58160E6
:1006400085BDEEE6F0E0808181608083E1E8F0E046
:100650001082808182608083808181608083E0E875
:10066000F0E0808181608083E1EBF0E08081846054
:100670008083E0EBF0E0808181608083EAE7F0E056
:1006800080818460808380818260808380818160BA
:1006900080838081806880831092C10008953FB775
:1006A000F8948091EF029091F002A091F102B09144
:1006B000F20226B5A89B05C02F3F19F00196A11D97
:1006C000B11D3FBFBA2FA92F982F8827BC01CD019C
:1006D000620F711D811D911D660F771F881F991F65
:1006E000660F771F881F991F08958F929F92AF9270
:1006F000BF92CF92DF92EF92FF926B017C010E943A
:100700004F034B015C011BC021E0C21AD108E10874
:10071000F10888EE880E83E0981EA11CB11CC1145C
:10072000D104E104F10459F00E944F0368197909DA
:100730008A099B09683E73408105910528F7C11419
:10074000D104E104F10459F7FF90EF90DF90CF90CE
:10075000BF90AF909F908F9008952FB7F8946091BD
:10076000EB027091EC028091ED029091EE022FBFAE
:1007700008956FEF7FEF81E090E00E94F503089508
:1007800083EF92E00E943301089583EF92E00E948C
:1007900011010895CF92DF92EF92FF926A017B01DF
:1007A00068EE73E080E090E00E94750326E0B701F8
:1007B000A60183EF92E00E944A01FF90EF90DF9044
:1007C000CF9008950895FC01168217821086118635
:1007D000128613861486158616861786108A118A45
:1007E000128A138A148A158A0895019709F00895C8
:1007F0006F3F7F4FE1F784EA92E00E94E303F7CF77
:100800000E94AD0308958F929F92AF92BF92CF92B4
:10081000DF92EF92FF92CF93DF93EC016A017B01AD
:100820000E9400044B015C01C80CD91CEA1CFB1C93
:10083000CE010E940004681579058A059B0528F001
:10084000C616D706E806F90698F7DF91CF91FF9014
:10085000EF90DF90CF90BF90AF909F908F900895D2
:100860000F931F93CF93DF93EC01662369F0CE01C2
:100870000E9400046A837B838C839D8381E0DF91E7
:10088000CF911F910F9108950E9400040A811B814E
:100890002C813D81DC01CB01801B910BA20BB30BA2
:1008A00082339105A105B10510F742E350E060E005
:1008B00070E0481B590B6A0B7B0B21E0CE010E94B4
:1008C0000304D5CF60E00E943004089521E00E9427
:1008D00003040895FC01EE5BFF4F10821182128227
:1008E0001382FC0112821382148215824115510574
:1008F0006105710509F408950E946604FCCFFC01AE
:10090000808580FF06C082FD02C080E0089581E0FE
:10091000089580E00895CF92DF92EF92FF921F93A7
:10092000CF93DF93EC0188858B7F8887E881F981FD
:100930000190F081E02DCE010995182F988581E076
:1009400091FF80E01817B1F00E94AD036A837B83AA
:100950008C839D83888592E089278887988581E0AC
:1009600092FF80E0DF91CF911F91FF90EF90DF9099
:10097000CF9008950E94AD03CA80DB80EC80FD809B
:10098000AB01BC014C195D096E097F098E819F8105
:10099000B0E0A0E0481759076A077B07F8F298858E
:1009A00081E090FF80E01817C9F20E94AD036A83CE
:1009B0007B838C839D83888591E0892784608887E9
:1009C0000E94AD036A877B878C879D87C7CFFC0118
:1009D000778366830895CF93DF93EC016987188648
:1009E000E881F9810190F081E02D0995882319F0C3
:1009F0008885836088870E94AD036A837B838C83AC
:100A00009D83DF91CF9108950F931F93CF93DF9331
:100A1000EC018B01E881F9810280F381E02D0995D9
:100A2000B801CE010E94EB04DF91CF911F910F918D
:100A30000895FC0184E091E0918380831282138207
:100A4000148215828AE090E097838683108611864F
:100A50000895862F642F0E94D5020895FC01818598
:100A60000E94750221E0892B09F420E0822F08956D
:100A70006FEF7FEF81E090E00E943F0508950197BE
:100A800009F008956F3F7F4FE1F786E992E00E94F9
:100A9000190588E892E00E9419058AE792E00E9411
:100AA00019058CE692E00E941905EBCF10925D02C9
:100AB00010925C0210925B0210925A021092610234
:100AC0001092600210925F0210925E0286E992E03C
:100AD0000E948B048CE692E00E948B040895CF93D1
:100AE000DF93D0E0C0E0C430D105A4F564E670E047
:100AF00080E090E00E94750360E082E00E94A20224
:100B000060E083E00E94A20260E084E00E94A20212
:100B100060E085E00E94A20268EC70E080E090E076
:100B20000E94750361E082E00E94A20261E083E01E
:100B30000E94A20261E084E00E94A20261E085E0DE
:100B40000E94A20268EC70E080E090E00E947503D1
:100B50002196C9CFDF91CF9108950F931F93CF9323
:100B6000DF93EC0102E010E0063011053CF460E098
:100B7000802F0E94A2020F5F1F4FF6CFC830D10511
:100B8000F4F4C770D078DD23FCF0C430D1050CF547
:100B9000C370D078DD2314F1C230D10524F5C170C3
:100BA000D078DD232CF11C161D0624F461E085E0CD
:100BB0000E94A202DF91CF911F910F91089561E0F1
:100BC00082E00E94A202DDCF2197C86FDF6F2196DD
:100BD000DCCF61E083E00E94A202DACF2197CC6FE4
:100BE000DF6F2196D9CF61E084E00E94A202D7CFC7
:100BF0002197CE6FDF6F2196D6CFDF92EF92FF92D3
:100C00000F931F93CF93DF93CDB7DEB7A1970FB6A6
:100C1000F894DEBF0FBECDBF7C01CB01BA01D22E4E
:100C200019A221E02D1520F48E010F5D1F4F0EC07B
:100C30000F2EFAE0DF2EF02DF7CFE95CD801EE930E
:100C40008D01611571058105910579F02D2D30E03B
:100C500050E040E00E943A0BE62F622F732F842F62
:100C6000952FEA3054F7E05DE9CF1097F9F0FD01D8
:100C700001900020E9F73197AF014A1B5B0BD701C8
:100C8000ED91FC910280F381E02DB801C701099537
:100C9000A1960FB6F894DEBF0FBECDBFDF91CF9106
:100CA0001F910F91FF90EF90DF90089590E080E00A
:100CB000EFCF2115310549F4DC01ED91FC91019054
:100CC000F081E02D642F099508950E94FD05089597
:100CD0009A01462F50E070E060E00E9459060895A6
:100CE000CF92DF92EF92FF920F931F93CF93DF93F8
:100CF000EC016A017B012115310581F4E881F9815C
:100D00000190F081E02D642F0995DF91CF911F9123
:100D10000F91FF90EF90DF90CF9008952A3031052A
:100D2000C1F4FF2024F02AE00E94FD05EECF6DE221
:100D30000E948D008C0144275527BA014C195D098A
:100D40006E097F092AE0CE010E94FD05800F911FE8
:100D5000DCCF0E94FD05D9CF9A01AB01770F660B5E
:100D6000770B0E9470060895DC01ED91FC910280E2
:100D7000F381E02D42E050E06AE171E009950895C9
:100D80000F931F93CF93DF93EC010E94AC068C016D
:100D9000CE010E94B406800F911FDF91CF911F9169
:100DA0000F9108956115710581F0FB0101900020FC
:100DB000E9F73197AF01461B570BDC01ED91FC9130
:100DC0000280F381E02D0995089590E080E0089578
:100DD0000F931F93CF93DF93EC010E94D2068C01F7
:100DE000CE010E94B406800F911FDF91CF911F9119
:100DF0000F910895CF92DF92EF92FF920F931F937E
:100E0000CF93DF93EC0110E000E0C12CD12C7601F0
:100E100020C080E001C080E090E0012E02C0880F79
:100E2000991F0A94E2F7082B1F5F183029F18DE013
:100E3000C816D104E104F104F9F041E050E060E0AB
:100E400070E0CE010E9466048FEFC81AD80AE80A43
:100E5000F80A8EE0C816D104E104F104E8F482E057
:100E6000C816D104E104F104A0F28C2D0E94750291
:100E7000892B89F281E0D0CF4AE050E0602F83EFE8
:100E800092E00E9468066DE171E083EF92E00E94BB
:100E9000D20610E000E0D1CFDF91CF911F910F91EA
:100EA000FF90EF90DF90CF9008951F93CF93DF9343
:100EB000EC01162F61E00E9430046FE171E083EFD6
:100EC00092E00E94D2064AE050E0612F83EF92E068
:100ED0000E94680666E271E083EF92E00E94E806F5
:100EE00042E350E060E070E0CE010E946604DF91D2
:100EF000CF911F9108950F931F93CF93DF93FC0120
:100F00002689222319F1062FEC010E94C0038823B1
:100F100021F1CE010E94C003882309F1CE010E9475
:100F2000C503182F8836E9F048F4883561F0833618
:100F300081F7602FCE010E94550709C0813789F0E3
:100F4000863729F0E6CF1E8A13E601C013E6812F0B
:100F5000DF91CF911F910F91089515E6F8CF15E617
:100F6000F6CF13E6F4CF1F93CF93DF93EC01142F4A
:100F7000662381F081E08E8B60E0CE010E947B07CA
:100F8000833641F041E050E060E070E0CE010E9425
:100F90006604F2CF1E8BDF91CF911F9108950F93BE
:100FA0001F930E94AD030091680210916902209185
:100FB0006A0230916B02601B710B820B930B6639D6
:100FC00071058105910508F06AC086E992E00E94EA
:100FD0008B0488E892E00E948B048AE792E00E94EA
:100FE0008B048CE692E00E948B0488E00E947502DC
:100FF00090936702809366028BE00E947502909343
:1010000065028093640286E992E00E947F04811168
:101010009BC088E892E00E947F048111BFC08AE7EC
:1010200092E00E947F048111E3C08CE692E00E946E
:101030007F0481110EC18091660290916702892B15
:1010400039F48091640290916502892B09F424C1DE
:10105000809160029091610240970CF034C18091C0
:1010600060029091610299230CF43EC180915A0272
:1010700090915B0240970CF048C180916202909180
:1010800063028130910509F45EC18230910509F453
:1010900061C1892B09F452C11F910F91089584EA0F
:1010A00092E00E940004609368027093690280934A
:1010B0006A0290936B0241E050E060E070E084EAE5
:1010C00092E00E94660461E084EA92E00E943004AB
:1010D000811109C041E050E060E070E084EA92E0F4
:1010E0000E94660472CF6DE271E083EF92E00E948D
:1010F000D20664E371E083EF92E00E94D20684EAB4
:1011000092E00E94FA0641E050E060E070E084EA7C
:1011100092E00E94660464E371E083EF92E00E9433
:10112000D20664E371E083EF92E00E94D20664E3AA
:1011300071E083EF92E00E94D20666E371E083EFF4
:1011400092E00E94D206C6CF81E090E090936302C5
:101150008093620280916002909161020196909367
:1011600061028093600290935F0280935E026EE35F
:1011700071E083EF92E00E94D2066091600270916C
:1011800061024AE050E083EF92E00E94AC0662E523
:1011900071E083EF92E00E94E8063BCF81E090E0AF
:1011A0009093630280936202809160029091610249
:1011B0000197909361028093600290935F02809305
:1011C0005E026EE371E083EF92E00E94D2066091CE
:1011D0006002709161024AE050E083EF92E00E9469
:1011E000AC0662E571E083EF92E00E94E80617CF5B
:1011F00062E671E083EF92E00E94D20660915E02A7
:1012000070915F024AE050E083EF92E00E94AC06EA
:101210006DE671E083EF92E00E94E80680915C0247
:1012200090915D0220915E0230915F02820F931FC8
:1012300090935D0280935C021092610210926002B2
:1012400010925F0210925E0210926302109262028C
:10125000ECCE80915C0290915D0290935B02809352
:101260005A0210925D0210925C0282E090E090932C
:1012700063028093620269E871E083EF92E00E946A
:10128000D20660915A0270915B024AE050E083EF0F
:1012900092E00E94C006CFCE0E946F050E945605C4
:1012A000109263021092620286E992E00E948B041F
:1012B0008CE692E00E948B046AE971E083EF92E091
:1012C0000E94E806C5CE0E946F0510925F02109240
:1012D0005E02109261021092600260EA71E083EF98
:1012E00092E00E94E806BBCE0E946F0510925F025A
:1012F00010925E0210926102109260026DED71E038
:1013000083EF92E00E94E806B1CE0E946F05109232
:101310005B0210925A0210925D0210925C021092CF
:1013200061021092600210925F0210925E026BE204
:1013300072E083EF92E00E94E8069FCE90E080E0AA
:101340000E94AD05A9CE80915E0290915F020E943D
:10135000AD05A2CE80915A0290915B020E94AD052C
:101360009BCE48EB5BE060E070E084EA92E00E9494
:101370006A0440E855E260E070E084EA92E00E948E
:10138000CA0361E084EA92E00E94300481116EC0D9
:1013900041E060E084EA92E00E94B30784EA92E0D0
:1013A0000E946204811171C042E050E068E070E088
:1013B00086E992E00E94040569E170E086E992E026
:1013C0000E94E70442E050E069E070E088E892E0C3
:1013D0000E94040569E170E088E892E00E94E70459
:1013E00042E050E06AE070E08AE792E00E94040583
:1013F00069E170E08AE792E00E94E70442E050E091
:101400006BE070E08CE692E00E94040569E170E018
:101410008CE692E00E94E70461E082E00E94D5023F
:1014200061E083E00E94D50261E084E00E94D50281
:1014300061E085E00E94D50260E082E00E94A202A5
:1014400060E083E00E94A20260E084E00E94A202C9
:1014500060E085E00E94A20226E040E855E260E0FC
:1014600070E083EF92E00E944A01089569E472E01F
:1014700083EF92E00E94D2064AE050E060E070E024
:1014800084EA92E00E94660483CF6DE271E083EF0C
:1014900092E00E94D20664E371E083EF92E00E9442
:1014A000D20664E371E083EF92E00E94D20664E327
:1014B00071E083EF92E00E94D20664E371E083EF73
:1014C00092E00E94D20666E371E083EF92E00E9410
:1014D000D2064AE050E060E070E084EA92E00E94C8
:1014E000660462CF0E9414030E94B1090E94CF07D4
:1014F0000E943B02FBCF1F920F920FB60F92112456
:101500002F933F934F935F936F937F938F939F930B
:10151000AF93BF93EF93FF9383EF92E00E94AC01F0
:10152000FF91EF91BF91AF919F918F917F916F91BB
:101530005F914F913F912F910F900FBE0F901F9091
:1015400018951F920F920FB60F9211242F938F931D
:101550009F93AF93BF93EF93FF93E0910303F091B9
:101560000403808182FD14C0E3EFF2E0A689B7890D
:101570002C91818D8F5F8F73928D891771F0DF01B0
:10158000E18DF0E0ED50FD4F258F59968C9305C00D
:10159000E0910903F0910A038081FF91EF91BF91DF
:1015A000AF919F918F912F910F900FBE0F901F9031
:1015B00018951F920F920FB60F9211240F931F933D
:1015C0002F933F934F935F936F937F938F939F934B
:1015D000AF93BF930091EB021091EC022091ED02CA
:1015E0003091EE029091EA02B901A8014F5F5F4F7E
:1015F0006F4F7F4F83E0890F8D3740F086E8890F6A
:10160000B901A8014E5F5F4F6F4F7F4F8093EA0291
:101610004093EB025093EC026093ED027093EE0264
:101620008091EF029091F002A091F102B091F2024C
:101630000196A11DB11D8093EF029093F002A0933B
:10164000F102B093F202BF91AF919F918F917F9180
:101650006F915F914F913F912F911F910F910F903B
:101660000FBE0F901F9018950E94C6000E94B903EC
:101670000C943805A1E21A2EAA1BBB1BFD010DC05C
:10168000AA1FBB1FEE1FFF1FA217B307E407F50732
:1016900020F0A21BB30BE40BF50B661F771F881F0E
:1016A000991F1A9469F760957095809590959B01A4
:1016B000AC01BD01CF010895EE0FFF1F0590F4911D
:0816C000E02D0994F894FFCF1E
:1016C800000000002E05290500000000CE0195004D
:1016D800000118023301110125010D0A003A0056D4
:1016E8004D4450435F005F564D44504300564D44AF
:1016F80050525F007C005F564D4450520A00566FAE
:10170800757320616C6C657A20616A6F7574657297
:101718002000206120766F74726520746F74616C8C
:1017280065006C612076616C65757220002061200F
:1017380065746520616A6F757465206120766F74C1
:1017480072652073746F636B006C652072657375C6
:101758006C7461742065737420005265736574003D
:101768004D6D6D6D682E2E2E20616A6F75746572D1
:1017780020706C757320717565206C2061666669D0
:101788006368616765206C65207065726D6574209B
:101798003F206F726967696E616C2E2E00556E6509
:1017A8002076616C657572206E656761746976650F
:1017B800206E652070657574207061732065747281
:1017C8006520616A6F757465652E2E206F756920B6
:1017D8006C65732064657620736F6E74206465731E
:1017E80020666C656D6172642021004F7570732EE0
:1017F8002E6C6520726573756C7461742064656203
:101808006F726465203B292000564D4450565F3165
:0A1818007C315F564D4450560A0023
:107E0000112484B714BE81FFF0D085E080938100F7
:107E100082E08093C00088E18093C10086E0809377
:107E2000C20080E18093C4008EE0C9D0259A86E02C
:107E300020E33CEF91E0309385002093840096BBD3
:107E4000B09BFECF1D9AA8958150A9F7CC24DD24C4
:107E500088248394B5E0AB2EA1E19A2EF3E0BF2EE7
:107E6000A2D0813461F49FD0082FAFD0023811F036
:107E7000013811F484E001C083E08DD089C08234E0
:107E800011F484E103C0853419F485E0A6D080C0E4
:107E9000853579F488D0E82EFF2485D0082F10E0AE
:107EA000102F00270E291F29000F111F8ED06801E7
:107EB0006FC0863521F484E090D080E0DECF843638
:107EC00009F040C070D06FD0082F6DD080E0C81688
:107ED00080E7D80618F4F601B7BEE895C0E0D1E017
:107EE00062D089930C17E1F7F0E0CF16F0E7DF06D8
:107EF00018F0F601B7BEE89568D007B600FCFDCFD4
:107F0000A601A0E0B1E02C9130E011968C91119780
:107F100090E0982F8827822B932B1296FA010C0160
:107F200087BEE89511244E5F5F4FF1E0A038BF0790
:107F300051F7F601A7BEE89507B600FCFDCF97BE46
:107F4000E89526C08437B1F42ED02DD0F82E2BD052
:107F50003CD0F601EF2C8F010F5F1F4F84911BD097
:107F6000EA94F801C1F70894C11CD11CFA94CF0C13
:107F7000D11C0EC0853739F428D08EE10CD085E9AC
:107F80000AD08FE07ACF813511F488E018D01DD067
:107F900080E101D065CF982F8091C00085FFFCCF94
:107FA0009093C60008958091C00087FFFCCF809118
:107FB000C00084FD01C0A8958091C6000895E0E648
:107FC000F0E098E1908380830895EDDF803219F02E
:107FD00088E0F5DFFFCF84E1DECF1F93182FE3DFCA
:107FE0001150E9F7F2DF1F91089580E0E8DFEE27F6
:047FF000FF270994CA
:027FFE00040479
:0400000300007E007B
:00000001FF