:100000000C9463000C948B000C948B000C948B006C
:100010000C948B000C948B000C948B000C94F810B7
:100020000C948B000C948B000C948B000C948B0024
:100030000C948B000C948B000C948B000C948B0014
:100040000C94BB110C948B000C9483110C945D11D7
:100050000C948B000C948B000C948B000C948B00F4
:100060000C9416120C948B00000000002400270052
:100070002A000000000023002600290000000008DC
:10008000000201000003040700000000000000005F
:10009000010204081020408001020408102001021F
:1000A0000408102000000000250028002B00040494
:1000B0000404040404040202020202020303030310
:1000C00003030200FC1311241FBECFEFD8E0DEBFF4
:1000D000CDBF11E0A0E0B1E0E6E4FDE202C0059092
:1000E0000D92AE3AB107D9F723E0AEEAB1E001C014
:1000F0001D92AC38B207E1F710E0C3E6D0E004C0CF
:100100002197FE010E949B16C236D107C9F70E94B3
:1001100054110C94A1160C9400000895813039F00C
:1001200018F0823051F0089510926E000895EFE6B5
:10013000F0E080818D7F80830895E0E7F0E08081AA
:100140008D7F808381E08093B000E1EBF0E08081DF
:10015000887F846080831092B3000895282FF0E098
:10016000E0E01E161F0664F0DF01A050BF4F9C9117
:10017000921711F03196F5CFEE53FF4F8491089509
:10018000F0E0E0E01E161F068CF0DF01A050BF4F2C
:100190009C919F3F11F03196F5CFDF01A050BF4FEA
:1001A0002C93EE53FF4FE4918E2F01C08FEF8F3FC2
:1001B00031F0813001F1823009F43BC081110895A2
:1001C00014BC15BC94B5926094BD95B5916095BD75
:1001D00030E0F901E255FF4FE491F0E0EE0FFF1F30
:1001E000EC55FF4F4591549120573F4FF901249111
:1001F00020937C03089510928000E1E8F0E01082E3
:1002000090819860908390819160908330E0F901B3
:10021000E255FF4FE491F0E0EE0FFF1FEC55FF4F6A
:100220004591549120573F4FF901249120937B032E
:100230000895A0EBB0E01C92E1EBF0E010829C91FD
:1002400092609C9390819160908330E0F901E25537
:10025000FF4FE491F0E0EE0FFF1FEC55FF4F45918B
:100260005491509386034093850320573F4FF901E3
:10027000249120938703A3CFDC01ED91FC910190A1
:10028000F081E02D09950895CF92DF92EF92FF92D1
:100290000F931F93CF93DF938C01DB01D0E0C0E07D
:1002A0007A0181E0E81AF108452BA1F0F80180817C
:1002B0009181FC01208131816D01FFEFCF1ADF0AAE
:1002C0006C91C801F9010995892B21F02196A701AC
:1002D000D601E6CFCE01DF91CF911F910F91FF9014
:1002E000EF90DF90CF90089508956FEF7FEF81E05A
:1002F00090E00E947C010895019709F008956F3FF6
:100300007F4FE1F7EEEDF2E01382128288EE93E088
:10031000A0E0B0E084839583A683B7838BE291E06D
:100320009183808385EC90E09587848784EC90E0CE
:100330009787868780EC90E0918B808B81EC90E0B2
:10034000938B828B82EC90E0958B848B86EC90E093
:10035000978B868B118E128E138E148ECFCFFC014D
:10036000938D848D981720F4891B990B019708951C
:100370002FE330E0291B3109820F932F911D08953F
:10038000FC01918D828D981761F0A28DAE0FBF2F69
:10039000B11D5D968C91928D9F5F9F73928F90E0BF
:1003A00008958FEF9FEF0895FC01918D828D98172E
:1003B00031F0828DE80FF11D858D90E008958FEF6B
:1003C0009FEF0895FC01218D30E0205C3F4F828D2E
:1003D000A901481B5109CA018F73992708958EED11
:1003E00092E00E94E20121E0892B09F420E0822FB3
:1003F0000895CF92DF92EF92FF921F93CF93DF93F6
:10040000EC016A017B01122F60E079E08DE390E05E
:10041000A70196010E94281521503109410951096F
:100420005695479537952795E889F98982E0808325
:10043000C11481EED806E104F10421F0211580E118
:10044000380798F0E889F989108260E874E88EE14D
:1004500090E0A70196010E94281521503109410919
:1004600051095695479537952795EC85FD8530833D
:10047000EE85FF852083188EEC89FD891083EA893B
:10048000FB89808180618083EA89FB898081886023
:100490008083EA89FB89808180688083EA89FB897F
:1004A00080818F7D8083DF91CF911F91FF90EF90AE
:1004B000DF90CF900895FC01A48DA80FB92FB11D36
:1004C000A35ABF4F2C91848D90E001968F73907842
:1004D000848FA689B7892C93A089B1898C91837068
:1004E00080648C93938D848D981308950288F3898A
:1004F000E02D80818F7D8083F8CF0F931F93CF9362
:10050000DF93EC0181E0888F9B8D8C8D9817B1F083
:10051000062F8B8D90E001968F739078182F8C8D1D
:1005200081131EC00FB607FCFACFE889F9898081D4
:1005300085FFF5CFCE010E945B02F1CFE889F989F2
:10054000808185FFE5CF9FB7F894EE89FF896083AE
:10055000E889F98980818370806480839FBF10C09F
:10056000EB8DEC0FFD2FF11DE35AFF4F00839FB77A
:10057000F8941B8FEA89FB898081806280839FBF0A
:1005800081E090E0DF91CF911F910F910895CF937B
:10059000DF93EC01888D811104C00DC00FB607FEFA
:1005A0000DC0EA89FB89808185FDF8CFA889B989CA
:1005B0008C9186FFF3CFDF91CF910895808185FFE5
:1005C000F0CFE889F989808185FFEBCFCE010E94C9
:1005D0005B02E7CF80E090E0892B21F00E94EF01E1
:1005E000811101C008950E940000FCCF8330B1F05A
:1005F00060F08730E9F0883009F1843021F5E0E8D7
:10060000F0E080818F7D80830895813069F08230B1
:1006100021F484B58F7D84BD08950895E0E8F0E06D
:1006200080818F778083089584B58F7784BD089506
:10063000E0EBF0E080818F7780830895E0EBF0E0DD
:1006400080818F7D80830895CF93DF93282F30E0C2
:10065000F901E458FF4F8491F901E057FF4FD4911D
:10066000F901E255FF4FC491CC23B1F081110EC0C6
:10067000EC2FF0E0EE0FFF1FEE58FF4FA591B49165
:10068000EC91ED2331F490E080E008C00E94F60286
:10069000EFCF81E090E002C090E080E0DF91CF9169
:1006A00008951F93CF93DF93282F30E0F901E4588A
:1006B000FF4F8491F901E057FF4F1491F901E25582
:1006C000FF4FC491CC23A9F0D62F811116C0EC2F77
:1006D000F0E0EE0FFF1FEC55FF4FA591B4918FB7DF
:1006E000F894D1110DC09C91E12FE095E923EC9392
:1006F0008FBFDF91CF911F9108950E94F602E7CF3F
:10070000EC91E12BEC93F4CFCF93C82F30E020E0B5
:10071000121613069CF0F901E050FF4F80818C17F0
:1007200019F02F5F3F4FF4CFF901EE53FF4F849143
:1007300020503F4F9FEFF901908301C08FEF0E943F
:100740008E0060E08C2F0E945103CF910895CF93CB
:10075000DF9390E0FC01E057FF4F249182559F4FBB
:10076000FC018491882319F190E0880F991FFC0106
:10077000E859FF4FA591B491FC01EC55FF4FC5918D
:10078000D491662349F06230A9F08FB7F894EC91C8
:10079000E22BEC938FBF0BC09FB7F8948C91E22FA4
:1007A000E0958E238C938881E823E8839FBFDF91B7
:1007B000CF9108959FB7F8943C91822F8095832321
:1007C0008C93E881E22BE8839FBFF1CF4F925F9239
:1007D0006F927F928F929F92AF92BF92CF92DF9251
:1007E000EF92FF920F931F93CF93DF9300D000D02F
:1007F0001F92CDB7DEB7F82E8B0149015A010E9436
:10080000AE008D8388230CF418C161E08F2D0E9407
:10081000A7038D81882359F1823049F1712C612C15
:1008200060E072E18AE790E0A30198010E944A1516
:1008300069017A0181E0C81AD108E108F108C11400
:10084000D10481E0E806F10408F416C168E478EE0A
:1008500081E090E0A30198010E944A1569017A01A4
:1008600081E0C81AD108E108F10893E006C1280127
:10087000712C612C60E072E18AE790E0A30198019D
:100880000E944A1529833A834B835C8369017A016C
:1008900081E0C81AD108E108F1088FEFC816D10429
:1008A000E104F10409F008F4A4C060E472E48FE00C
:1008B00090E0A30198010E944A1569017A0181E044
:1008C000C81AD108E108F1088D81823009F45AC0B4
:1008D00092E08FEFC816D104E104F10409F008F4A6
:1008E00089C068E478EE81E090E0A30192010E9463
:1008F0004A1569017A0181E0C81AD108E108F108B6
:100900008D81811159C093E08D81823009F456C0E8
:100910008FEFC816D104E104F10409F008F46AC0AD
:1009200062E17AE780E090E0A30192010E944A151B
:1009300069017A0181E0C81AD108E108F1088D81C6
:10094000811155C094E08FEFC816D104E104F10481
:1009500009F008F44FC0C980DA80EB80FC800B2ED0
:10096000BAE0F594E794D794C794BA95D1F7B02D2F
:1009700081E0C81AD108E108F1088D81811173C0A6
:1009800095E038C08FEFC816D104E104F10491F06E
:1009900088F060E970ED83E090E0A30198010E9487
:1009A0004A1569017A0181E0C81AD108E108F10805
:1009B00093E08FCF92E08DCF94E0A6CF8FEFC81653
:1009C000D104E104F10409F008F4A2CF64E274EF69
:1009D00080E090E0A30192010E944A1569017A012A
:1009E00081E0C81AD108E108F10895E091CF96E0BE
:1009F000AACF91E08D81811138C085B5887F892B80
:100A000085BD81149104A104B10409F440C0D8014A
:100A1000AA0FBB1FA50194010E94691528EE33E0BF
:100A200040E050E00E9428158D81813009F442C0D9
:100A3000823009F451C0882371F10F900F900F900C
:100A40000F900F90DF91CF911F910F91FF90EF903A
:100A5000DF90CF90BF90AF909F908F907F906F90DE
:100A60005F904F90089597E0C5CFE1EBF0E0808173
:100A7000887F892B8083C5CF91E08D81813009F6F5
:100A8000E1E8F0E08081887F892B8083BACF2FEF67
:100A90003FEFA901C9CFC7BC2093810330938203E4
:100AA0004093830350938403EEE6F0E080818260FC
:100AB0008083C3CFD0928900C092880020937D03A9
:100AC00030937E0340937F0350938003EFE6F0E082
:100AD000808182608083B1CFC092B300209388036D
:100AE0003093890340938A0350938B03E0E7F0E04F
:100AF000808182608083A1CF8E3008F08E50877015
:100B0000806480937C00EAE7F0E0808180648083E9
:100B100080917A0086FDFCCF8091780090917900D9
:100B20000895789484B5826084BD84B5816084BD65
:100B300085B5826085BD85B5816085BDEEE6F0E056
:100B4000808181608083E1E8F0E0108280818260B2
:100B50008083808181608083E0E8F0E08081816033
:100B60008083E1EBF0E0808184608083E0EBF0E063
:100B7000808181608083EAE7F0E080818460808307
:100B800080818260808380818160808380818068B1
:100B900080831092C10008958230910538F0880F4B
:100BA000991F880F991F05970197F1F708953FB78F
:100BB000F8948091DA029091DB02A091DC02B0916E
:100BC000DD0226B5A89B05C02F3F19F00196A11D97
:100BD000B11D3FBFBA2FA92F982F8827BC01CD0187
:100BE000620F711D811D911D660F771F881F991F50
:100BF000660F771F881F991F08958F929F92AF925B
:100C0000BF92CF92DF92EF92FF926B017C010E9424
:100C1000D7054B015C011BC021E0C21AD108E108D5
:100C2000F10888EE880E83E0981EA11CB11CC11447
:100C3000D104E104F10459F00E94D705681979093B
:100C40008A099B09683E73408105910528F7C11404
:100C5000D104E104F10459F7FF90EF90DF90CF90B9
:100C6000BF90AF909F908F9008952FB7F8946091A8
:100C7000D6027091D7028091D8029091D9022FBFED
:100C800008956FEF7FEF81E090E00E947D06089568
:100C90008EED92E00E94E20108958EED92E00E94B6
:100CA000C0010895CF92DF92EF92FF926A017B011B
:100CB00068EE73E080E090E00E94FD0526E0B70159
:100CC000A6018EED92E00E94F901FF90EF90DF9077
:100CD000CF9008950895FC01168217821086118620
:100CE000128613861486158616861786108A118A30
:100CF000128A138A148A158A0895019709F00895B3
:100D00006F3F7F4FE1F78FE892E00E946B06F7CFCD
:100D10000E9435060895CF93DF93EC010E94880668
:100D20006E837F8388879987DF91CF910895CF93D2
:100D3000DF93EC014E875F87688B798B1A8A1B8A59
:100D40001C8A1D8A8E819F81A885B9858A879B8789
:100D5000AC87BD87CE010E9488066E837F8388871B
:100D60009987DF91CF9108958F929F92AF92BF9212
:100D7000CF92DF92EF92FF92CF93DF93EC016A0163
:100D80007B010E9488064B015C01C80CD91CEA1C3F
:100D9000FB1CCE010E948806681579058A059B0513
:100DA00028F0C616D706E806F90698F7DF91CF9126
:100DB000FF90EF90DF90CF90BF90AF909F908F907B
:100DC00008950F931F93CF93DF93EC01662369F08F
:100DD000CE010E9488066A837B838C839D8381E099
:100DE000DF91CF911F910F9108950E9488060A818B
:100DF0001B812C813D81DC01CB01801B910BA20B5F
:100E0000B30B82339105A105B10510F742E350E021
:100E100060E070E0481B590B6A0B7B0B21E0CE01B0
:100E20000E94B406D5CF60E00E94E106089521E05B
:100E30000E94B4060895FC01EE5BFF4F1082118200
:100E400012821382FC0112821382148215824115D0
:100E500051056105710509F408950E941707FCCF3B
:100E6000FC01138212828FE191E09183808364837D
:100E70004187228713860895089585EC8093BC00EE
:100E800010925D02089585ED8093BC008091BC00B6
:100E900084FDFCCF10925D020895811104C085E8A5
:100EA0008093BC00089585EC8093BC0008959093D6
:100EB000360280933502089590933A028093390266
:100EC0000895AC0120913702260F3327331F2132BA
:100ED0003105F4F480915D028430E1F490E00FC0BC
:100EE000E0913702292F30E0E20FF32FF11D240F9C
:100EF000351FD9012C91EB5EFD4F20839F5F961724
:100F000078F380913702680F6093370280E008958C
:100F100081E0089582E008950F93413208F051C0B6
:100F200090915D029111FCCF92E090935D0200934D
:100F30005F029FEF90935C021092810240938002C7
:100F400090E00AC0E92FF0E0DB01AE0FBF1F3C913B
:100F5000E05AFD4F30839F5F9417A0F310928202F6
:100F6000880F90918202892B8093820280915E0289
:100F70008130B9F085EE8093BC00222321F080916E
:100F80005D028230D1F380915C028F3FE9F0809165
:100F90005C028032D9F080915C02803381F084E081
:100FA00011C010925E02809182028093BB008091FA
:100FB000BC0083FDF8CF85EC8093BC00DECF83E0DE
:100FC00001C081E00F91089580E0FCCF82E0FACF6C
:100FD00010925D0281E080935F0210925E0261E0F8
:100FE00082E10E94510361E083E10E945103E9EB39
:100FF000F0E080818E7F808380818D7F808388E494
:101000008093B80085E48093BC0008956FEF7FEF74
:1010100081E090E00E94060A0895089508950895D9
:10102000E091120280911102E81730F4F0E0EF50E5
:10103000FE4F808190E008958FEF9FEF089590918B
:10104000120280911102981758F4E92FF0E0EF5046
:10105000FE4F208130E09F5F90931202C9010895F6
:101060002FEF3FEFFBCF8091110290911202891B6D
:10107000990B0895CF92DF92EF92FF920F931F93F7
:10108000CF93DF938C016B017A018091F00188236B
:1010900099F0D0E0C0E0CE15DF0590F4D801ED91D5
:1010A000FC910190F081E02DD601AC0FBD1F6C9139
:1010B000C80109952196EFCF642FC6010E946107F0
:1010C000C701DF91CF911F910F91FF90EF90DF90BB
:1010D000CF900895CF93DF931F92CDB7DEB7FC0179
:1010E00069839091F0019923F1F09091130290326D
:1010F00050F081E090E09383828390E080E00F9055
:10110000DF91CF91089580911402E82FF0E0E05331
:10111000FE4F998190838F5F809314028093130216
:1011200081E090E0ECCF61E0CE0101960E94610782
:1011300081E090E0E4CF0F9340911302062F21E06D
:1011400060ED71E08091CF010E948C071092140233
:10115000109213021092F0010F91089561E00E9425
:101160009B08089581E08093F0016093CF01109275
:1011700014021092130208951F93CF93DF93EC0192
:10118000162F6C8183E892E00E94B2086B85612B78
:10119000E0918302F09184020190F081E02D83E8D8
:1011A00092E0099583E892E00E94AE08DF91CF912A
:1011B0001F9108950F931F93CF938C01C62F6460E6
:1011C0000E94BC0881E090E00E94CC056C2F6B7FF0
:1011D000C8010E94BC0882E390E00E94CC05CF9138
:1011E0001F910F9108951F93CF93DF93EC01162F5A
:1011F0000E94BC08612FCE010E94DA08DF91CF91D6
:101200001F910895EF92FF920F931F93CF937C014C
:10121000C42F862F807F90E1699F80011124682F61
:10122000642BC7010E94F3086C2F602BC7010E943A
:10123000F308CF911F910F91FF90EF900895FC015B
:101240006681262F246026836C6040E00E9402099C
:101250000895CF93DF93CDB7DEB728970FB6F894F4
:10126000DEBF0FBECDBF28E0E1E0F1E0DE01119668
:1012700001900D922A95E1F7FC012085241710F4C6
:101280004FEF420FE42FF0E0EE0FFF1FEC0FFD1FBA
:101290002181620F606840E00E94020928960FB623
:1012A000F894DEBF0FBECDBFDF91CF91089540E02F
:1012B00062E00E94020980ED97E00E94CC0508954B
:1012C00040E061E00E94020980ED97E00E94CC05B9
:1012D000089541E00E94020981E090E0089528E02D
:1012E000FC01238760E00E94BC080895CF93DF9340
:1012F000EC01423018F08D8188608D83488722236D
:1013000019F0413009F447C062E370E080E090E0FA
:101310000E94FD056B85CE010E94BC0868EE73E05B
:1013200080E090E00E94FD0560E3CE010E94F3089A
:1013300084E991E10E94CC0560E3CE010E94F308AC
:1013400084E991E10E94CC0560E3CE010E94F3089C
:1013500086E990E00E94CC0560E2CE010E94F3088D
:101360006D81606240E0CE010E94020984E08E83BC
:10137000CE010E941F09CE010E94600982E08F8386
:1013800040E066E0CE010E940209CE010E945709AA
:10139000DF91CF9108958D8184608D83B5CF1092B8
:1013A00012021092110210921402109213020E9463
:1013B000E8078DE098E00E9457078EE098E00E94D1
:1013C0005C070895CF93DF93EC0183E892E00E94DD
:1013D000CF091D8220E04A856985CE010E947609E9
:1013E000DF91CF9108950E94E2090895FC011382D4
:1013F000128288EE93E0A0E0B0E084839583A68318
:10140000B7838DE091E0918380830895019709F07F
:1014100008956F3F7F4FE1F783E892E00E94F6095D
:10142000F7CF90E080E008957F928F929F92AF92E5
:10143000BF92CF92DF92EF92FF920F931F93CF93C1
:10144000DF937C01C62ED42F862F90E0FC01E0575D
:10145000FF4FC491FC01E255FF4FE491F0E0EE0F25
:10146000FF1FEE58FF4F0591149180E0853030F456
:10147000F701E80FF11D10868F5FF8CF61E08C2D2A
:101480000E94A70360E08C2D0E9451036D2F70E035
:1014900090E080E00E94FD0561E08C2D0E945103E8
:1014A00088E290E00E94CC0560E08C2D0E94A703AA
:1014B00020E931E0F80180818C2331F42150310999
:1014C000C9F78EEF9FEF46C020E931E0F801808137
:1014D0008C2331F021503109C9F78EEF9FEF3AC0CC
:1014E0000F2EF8E2DF2EF02D712CD0E826C00E94DE
:1014F000D7054B015C0120E931E0F80180818C23A4
:1015000031F021503109C9F78EEF9FEF23C00E94BF
:10151000D705681979098A099B096932710581051E
:10152000910530F0F701E70DF11D80858D2B808747
:10153000D69511F47394D0E8DA94DD20C9F020E94F
:1015400031E0F80180818C2391F621503109C9F7EF
:101550008EEF9FEFDF91CF911F910F91FF90EF9052
:10156000DF90CF90BF90AF909F908F907F90089525
:1015700061E08C2D0E94A70361E08C2D0E94510335
:1015800090E080E0E7CFEF92FF920F931F93CF930D
:10159000DF93EC0142E10E94140A8C01892B11F5C2
:1015A000F8846F2D70E090E080E00E940914688359
:1015B00079838A839B83EA846E2D70E090E080E0DB
:1015C0000E9409146C837D838E839F83FE0C8C851F
:1015D0008F1115C0C801DF91CF911F910F91FF901E
:1015E000EF90089580E090ECA9E7B4EC88839983AC
:1015F000AA83BB838C839D83AE83BF83EBCF0FEF26
:101600001FEFE8CF6FEF7FEF81E090E00E94090BC2
:101610000895019709F008956F3F7F4FE1F724E0A7
:1016200044E167E283EC91E00E943007F4CFDF925F
:10163000EF92FF920F931F93CF93DF93CDB7DEB757
:10164000A1970FB6F894DEBF0FBECDBF7C01CB01D2
:10165000BA01D22E19A221E02D1520F48E010F5DC2
:101660001F4F0EC00F2EFAE0DF2EF02DF7CFE95CF2
:10167000D801EE938D01611571058105910579F011
:101680002D2D30E050E040E00E942815E62F622F1B
:10169000732F842F952FEA3054F7E05DE9CF109730
:1016A000F9F0FD0101900020E9F73197AF014A1BE5
:1016B0005B0BD701ED91FC910280F381E02DB80125
:1016C000C7010995A1960FB6F894DEBF0FBECDBF36
:1016D000DF91CF911F910F91FF90EF90DF900895D0
:1016E00090E080E0EFCF2115310549F4DC01ED9168
:1016F000FC910190F081E02D642F099508950E94DE
:10170000170B08959A01AB0170E060E00E94730B23
:1017100008959A01462F50E070E060E00E94730B3C
:101720000895CF92DF92EF92FF920F931F93CF9382
:10173000DF93EC016A017B012115310581F4E88119
:10174000F9810190F081E02D642F0995DF91CF910F
:101750001F910F91FF90EF90DF90CF9008952A3066
:101760003105C1F4FF2024F02AE00E94170BEECFD0
:101770006DE20E943C018C0144275527BA014C19A7
:101780005D096E097F092AE0CE010E94170B800FC8
:10179000911FDCCF0E94170BD9CF9A01AB01770FB5
:1017A000660B770B0E94910B0895DC01ED91FC9183
:1017B0000280F381E02D42E050E069E371E0099599
:1017C00008956115710581F0FB0101900020E9F792
:1017D0003197AF01461B570BDC01ED91FC91028064
:1017E000F381E02D0995089590E080E008954F92EF
:1017F0005F926F927F92AF92BF92CF92DF92EF9201
:10180000FF920F931F93CF93DF9300D000D01F92CE
:10181000CDB7DEB75C016A017B012D83AB01960178
:10182000CB01B6010E949616811151C026013701E5
:10183000E89477F821E029832FEF3FEF4FE75FE748
:10184000C301B2010E94961681110BC02FEF3FEF2A
:101850004FE75FE7C301B2010E94041418160CF4AD
:10186000198289818823D1F12FEF3FEF4FE75FE4A1
:10187000C701B6010E94911618160CF44AC02FEF4A
:101880003FEF4FE75FECC701B6010E9404148823C5
:101890000CF446C020E030E0A901C701B6010E9467
:1018A000041488230CF443C0712C612C10E060E018
:1018B00070E080E09FE32D81121708F042C020E025
:1018C00030E040E251E40E94F0151F5FF4CF6CE37A
:1018D00071E0C5010E94E10B8C0106C060E471E07B
:1018E000C5010E94E10B8C01C8010F900F900F9071
:1018F0000F900F90DF91CF911F910F91FF90EF907C
:10190000DF90CF90BF90AF907F906F905F904F909F
:10191000089564E471E0C5010E94E10B8C01E4CFFD
:1019200064E471E0C5010E94E10B8C01DDCF6DE242
:10193000C5010E943C013C01F7FAF094F7F8F094DD
:10194000B5CF9B01AC01C701B6010E9484156B01A4
:101950007C010E94621669837A838B839C830E9438
:1019600009149B01AC01C701B6010E9483156B01EC
:101970007C012AE030E049815A816B817C81C5017C
:101980000E94730B8301080F191F8D8181112BC0D9
:101990002D81215029838D81882309F4A5CF20E052
:1019A00030E040E251E4C701B6010E946A142B0105
:1019B0003C010E9462166B014AE050E0C5010E94A2
:1019C000820B080F191FB60190E080E00E940914F5
:1019D0009B01AC01C301B2010E9483156B017C0124
:1019E00029812D83D5CF6EE2C5010E943C01080FED
:1019F000191FCECF0E94F70B08950F931F93CF931B
:101A0000DF93EC010E94E10B8C01CE010E94D50B0B
:101A1000800F911FDF91CF911F910F91089568E47E
:101A200071E08EED92E00E94FD0C0895CF93DF935C
:101A3000D0E0C0E0C630D10594F48C2F0E947C0524
:101A40004AE050E0BC018EED92E00E94CD0B66E6CC
:101A500071E08EED92E00E94E10B2196EBCFDF91D9
:101A6000CF910895CF92DF92EF92FF920F931F9341
:101A7000CF93DF93EC0110E000E0C12CD12C760174
:101A800020C080E001C080E090E0012E02C0880FFD
:101A9000991F0A94E2F7082B1F5F183029F18DE097
:101AA000C816D104E104F104F9F041E050E060E02F
:101AB00070E0CE010E9417078FEFC81AD80AE80A13
:101AC000F80A8EE0C816D104E104F104E8F482E0DB
:101AD000C816D104E104F104A0F28C2D0E94240365
:101AE000892B89F281E0D0CF4AE050E0602F8EED63
:101AF00092E00E94890B66E671E08EED92E00E9412
:101B0000E10B10E000E0D1CFDF91CF911F910F9159
:101B1000FF90EF90DF90CF9008951F93CF93DF93C6
:101B2000EC01162F61E00E94E1066FE471E08EED9A
:101B300092E00E94E10B4AE050E0612F8EED92E0CE
:101B40000E94890B66E571E08EED92E00E94FD0C2B
:101B500042E350E060E070E0CE010E941707DF91A1
:101B6000CF911F9108950F931F93CF93DF93FC01A3
:101B70002689222319F1062FEC010E9448068823AA
:101B800021F1CE010E944806882309F1CE010E946E
:101B90004D06182F8836E9F048F4883561F0833611
:101BA00081F7602FCE010E948D0D09C0813789F029
:101BB000863729F0E6CF1E8A13E601C013E6812F8F
:101BC000DF91CF911F910F91089515E6F8CF15E69B
:101BD000F6CF13E6F4CF1F93CF93DF93EC01142FCE
:101BE000662381F081E08E8B60E0CE010E94B30D10
:101BF000833641F041E050E060E070E0CE010E94A9
:101C00001707F2CF1E8BDF91CF911F910895CF92CE
:101C1000DF92EF92FF921F93CF93DF93EC01162F89
:101C20000E9488066B017C016DE571E08EED92E00B
:101C30000E94E10B4AE050E0612F8EED92E00E949D
:101C4000890B64E671E08EED92E00E94E10B2AE0E0
:101C500030E0B701A6018EED92E00E94730B66E6BC
:101C600071E08EED92E00E94E10B8E819F81A8854C
:101C7000B985B701A601481B590B6A0B7B0B2AE0FB
:101C800030E08EED92E00E94730B66E671E08EED1F
:101C900092E00E94E10B4E815F81688579858A859B
:101CA0009B85AC85BD85481B590B6A0B7B0B2AE0D5
:101CB00030E08EED92E00E94730BDF91CF911F9187
:101CC000FF90EF90DF90CF900895CF92DF92EF9248
:101CD000FF920F931F93CF93DF930E9435060091DD
:101CE000BF011091C0012091C1013091C201601B60
:101CF000710B820B930B663971058105910508F014
:101D000074C10E943506672B682B692B39F40E9439
:101D10003506623071058105910578F18FE892E012
:101D20000E9488060091BB011091BC012091BD0169
:101D30003091BE01601771078207930740F46093EA
:101D4000BB017093BC018093BD019093BE010091D3
:101D5000BB011091BC012091BD013091BE016B010E
:101D60007C01C01AD10AE20AF30A970186010A3FF0
:101D700011052105310508F091C167E08EEA91E077
:101D80000E94C30A60E082E00E94510340E061E0EB
:101D900083EC91E00E94290969E771E083EC91E00E
:101DA0000E94E10BCEEAD1E04C815D816E817F81A2
:101DB00022E030E083EC91E00E94FA0C6FED83ECBE
:101DC00091E00E943C016BE571E083EC91E00E94A0
:101DD000E10B41E060E083EC91E00E94290960E8BA
:101DE00071E083EC91E00E94E10B488159816A81A6
:101DF0007B8122E030E083EC91E00E94FA0C6BE8FA
:101E000071E083EC91E00E94E10B60ED77E080E00F
:101E100090E00E94FD0540E061E083EC91E00E94CB
:101E200029096DE871E083EC91E00E94E10B20E06C
:101E300030E0A90160EA76E889E00E94E6036CE2FE
:101E400071E080E090E00E94FD0589E00E9484033B
:101E500064EF71E080E090E00E94FD0520E030E05A
:101E6000A90160EE71E089E00E94E60366E970E096
:101E700080E090E00E94FD0589E00E94840364E612
:101E800070E080E090E00E94FD0520E030E0A901D4
:101E900060EE71E089E00E94E60366E970E080E0B0
:101EA00090E00E94FD0589E00E94840364E670E0F2
:101EB00080E090E00E94FD0520E030E0A9016EEE98
:101EC00072E089E00E94E60360E971E080E090E062
:101ED0000E94FD0589E00E94840364E670E080E0D2
:101EE00090E00E94FD0520E030E0A9016EEE72E076
:101EF00089E00E94E60360E971E080E090E00E94E2
:101F0000FD0589E00E94840364E670E080E090E0D3
:101F10000E94FD0520E030E0A9016EEE72E089E04C
:101F20000E94E60360E971E080E090E00E94FD0518
:101F300061E082E00E94510361E084E00E9451036D
:101F400060E971E080E090E00E94FD0560E082E0E1
:101F50000E94510360E084E00E94510368EC70E04D
:101F600080E090E00E94FD0561E082E00E94510364
:101F700061E084E00E94510368EC70E080E090E052
:101F80000E94FD0560E082E00E94510360E084E071
:101F90000E94510368EC70E080E090E00E94FD0533
:101FA00061E082E00E94510361E084E00E945103FD
:101FB00068EC70E080E090E00E94FD0560E082E067
:101FC0000E94510360E084E00E94510368EC70E0DD
:101FD00080E090E00E94FD05DF91CF911F910F916D
:101FE000FF90EF90DF90CF9008958FE892E00E94ED
:101FF00088066093BF017093C0018093C1019093E4
:10200000C20141E050E060E070E08FE892E00E94A1
:10201000170761E08FE892E00E94E106811109C094
:1020200041E050E060E070E08FE892E00E94170726
:1020300068CE68E671E08EED92E00E94E10B6FE6FB
:1020400071E08EED92E00E94E10B8FE892E00E9439
:10205000320D41E050E060E070E08FE892E00E94D5
:1020600017076FE671E08EED92E00E94E10B8FE8BA
:1020700092E00E94160D6FE671E08EED92E00E94F4
:10208000E10B6FE671E08EED92E00E94E10B61E7FB
:1020900071E08EED92E00E94E10BC2CF6093BB0134
:1020A0007093BC018093BD019093BE0144EF51E059
:1020B00060E070E08FE892E00E94970661E08FE8B0
:1020C00092E00E94E10681110DC045E050E060E021
:1020D00070E08FE892E00E9417078FE892E00E947C
:1020E0008B064BCE61E08FE892E00E94070E6FE610
:1020F00071E08EED92E00E94E10B0E943506AB018B
:10210000BC012AE030E08EED92E00E94730B8FE874
:1021100092E00E940F0DD9CF48EB5BE060E070E0E9
:102120008FE892E00E941B0740E052EC61E070E013
:102130008FE892E00E94520661E08FE892E00E94F0
:10214000E106811119C041E060E08FE892E00E9451
:10215000EB0D8FE892E00E94130781111CC083EC05
:1021600091E00E94F30983EC91E00E946F0961E025
:1021700089E00E94A70308956CE971E08EED92E07A
:102180000E94E10B4AE050E060E070E08FE892E0EE
:102190000E941707D8CF68E671E08EED92E00E94AA
:1021A000E10B6FE671E08EED92E00E94E10B6FE6CD
:1021B00071E08EED92E00E94E10B6FE671E08EED32
:1021C00092E00E94E10B6FE671E08EED92E00E94DA
:1021D000E10B61E771E08EED92E00E94E10B4AE0D5
:1021E00050E060E070E08FE892E00E941707B7CF00
:1021F0001F920F920FB60F9211242F933F934F937C
:102200005F936F937F938F939F93AF93BF93EF935E
:10221000FF938091880390918903A0918A03B091E4
:102220008B03892B8A2B8B2BD1F190918703E09123
:102230008503F091860380818927808380918803BC
:1022400090918903A0918A03B0918B031816190607
:102250001A061B069CF48091880390918903A09133
:102260008A03B0918B030197A109B1098093880378
:1022700090938903A0938A03B0938B03FF91EF910E
:10228000BF91AF919F918F917F916F915F914F918E
:102290003F912F910F900FBE0F901F901895809136
:1022A00000010E948403EACF0E9491050E948C10D5
:1022B0000E94650E0E94EA02FBCF1F920F920FB69A
:1022C0000F9211242F933F934F935F936F937F93BC
:1022D0008F939F93AF93BF93EF93FF938EED92E015
:1022E0000E945B02FF91EF91BF91AF919F918F91FF
:1022F0007F916F915F914F913F912F910F900FBE02
:102300000F901F9018951F920F920FB60F921124E5
:102310002F938F939F93AF93BF93EF93FF93E0918E
:10232000EE02F091EF02808182FD14C0EEEDF2E04A
:10233000A689B7892C91818D8F5F8F73928D8917B4
:1023400071F0DF01E18DF0E0E252FD4F258F5996EB
:102350008C9305C0E091F402F091F5028081FF9129
:10236000EF91BF91AF919F918F912F910F900FBEE1
:102370000F901F9018951F920F920FB60F92112475
:102380000F931F932F933F934F935F936F937F937D
:102390008F939F93AF93BF930091D6021091D70272
:1023A0002091D8023091D9029091D502B901A801AB
:1023B0004F5F5F4F6F4F7F4F83E0890F8D3740F046
:1023C00086E8890FB901A8014E5F5F4F6F4F7F4FBD
:1023D0008093D5024093D6025093D7026093D802DF
:1023E0007093D9028091DA029091DB02A091DC0215
:1023F000B091DD020196A11DB11D8093DA02909388
:10240000DB02A093DC02B093DD02BF91AF919F91FC
:102410008F917F916F915F914F913F912F911F917C
:102420000F910F900FBE0F901F9018951F920F9253
:102430000FB60F9211242F933F934F935F936F9397
:102440007F938F939F93AF93BF93EF93FF93E0910D
:10245000B900E87FE93C08F0D5C0F0E0EE5CFD4E45
:102460000C949B16F71302130213021302130213A8
:1024700002130213FB1202130213021302130213BC
:1024800002130213FB1202130213021302130213AC
:102490000213021313130213021302130213021383
:1024A000021302133913021302130213021302134D
:1024B0000213021313130213021302130213021363
:1024C000021302133F130213021302130213021327
:1024D0000213021345130213021302130213021311
:1024E00002130213571302130213021302130213EF
:1024F00002130213811302130213021302130213B5
:10250000021302134B1302130213021302130213DA
:1025100002130213651302130213021302130213B0
:102520000213021384130213021302130213021381
:102530000213021384130213021302130213021371
:102540000213021384130213021302130213021361
:102550000213021384130213021302130213021351
:10256000021302138D130213021302130213021338
:1025700002130213BE1302130213021302130213F7
:10258000021302138D130213021302130213021318
:1025900002130213BE1302130213021302130213D7
:1025A00002130213A51302130213021302130213E0
:1025B00002130213C21302130213021302130213B3
:1025C00002130213C21302130213021302130213A3
:1025D00002130213D713021302130213021302137E
:1025E00002130213F1130213021302130213021354
:1025F00002130213F113809182028093BB0081E0E9
:102600000E944D07FF91EF91BF91AF919F918F91E4
:102610007F916F915F914F913F912F910F900FBEDE
:102620000F901F90189590918102809180029817C9
:1026300068F080915F02811119C081E080935E0291
:1026400084EA8093BC0010925D02DCCFE0918102AD
:1026500081E08E0F80938102F0E0E05AFD4F80818F
:102660008093BB0081E00E944D07CCCF0E944307BE
:10267000C9CF80E280935C020E944307C3CF80E30E
:1026800080935C020E944307BDCF88E380935C0285
:102690000E943D07B7CFE091810281E08E0F8093C9
:1026A0008102F0E08091BB00E05AFD4F8083909161
:1026B000810280918002981720F481E00E944D07EA
:1026C000A1CF80E00E944D079DCFE091810281E083
:1026D0008E0F80938102F0E08091BB00E05AFD4FA5
:1026E000808380915F02811109C081E080935E0246
:1026F00084EA8093BC0010925D0284CF0E9443075D
:1027000081CF0E9443077ECF83E080935D021092C9
:102710005B0281E00E944D0775CF80915B028032A1
:1027200080F4E0915B0281E08E0F80935B02F0E029
:102730008091BB00E55CFD4F808381E00E944D07E6
:1027400061CF80E00E944D075DCF0E943D078091E0
:102750005B02803230F4E0915B02F0E0E55CFD4F1B
:10276000108260915B0270E0E0913902F0913A02D0
:102770008BE392E0099510925B0244CF80E00E94C7
:102780004D0740CF84E080935D0210923802109292
:102790003702E0913502F0913602099580913702B7
:1027A000811105C081E08093370210921502E091FB
:1027B000380281E08E0F80933802F0E0EB5EFD4F2F
:1027C00080818093BB0090913802809137029817E6
:1027D00020F481E00E944D0715CF80E00E944D0754
:1027E00011CF81E00E944D0710925D020BCF109235
:1027F0005C020E94430706CF0E9475010E944106B9
:102800000E9406080C94020B0E94461408F481E012
:102810000895E89409C097FB3EF4909580957095D3
:1028200061957F4F8F4F9F4F9923A9F0F92F96E91C
:10283000BB279395F695879577956795B795F11191
:10284000F8CFFAF4BB0F11F460FF1BC06F5F7F4F2E
:102850008F4F9F4F16C0882311F096E911C0772340
:1028600021F09EE8872F762F05C0662371F096E849
:10287000862F70E060E02AF09A95660F771F881F18
:10288000DAF7880F9695879597F90895990F0008BC
:10289000550FAA0BE0E8FEEF16161706E807F90732
:1028A000C0F012161306E407F50798F0621B730BCD
:1028B000840B950B39F40A2661F0232B242B252B4E
:1028C00021F408950A2609F4A140A6958FEF811DF1
:1028D000811D08950E947D140C94EE140E94E01452
:1028E00038F00E94E71420F0952311F00C94D714CF
:1028F0000C94DD1411240C9422150E94FF1470F323
:10290000959FC1F3950F50E0551F629FF001729F94
:10291000BB27F00DB11D639FAA27F00DB11DAA1FA3
:10292000649F6627B00DA11D661F829F2227B00DF0
:10293000A11D621F739FB00DA11D621F839FA00D7B
:10294000611D221F749F3327A00D611D231F849FCB
:10295000600D211D822F762F6A2F11249F57504022
:102960009AF0F1F088234AF0EE0FFF1FBB1F661F9D
:10297000771F881F91505040A9F79E3F510580F066
:102980000C94D7140C9422155F3FE4F3983ED4F3D3
:10299000869577956795B795F795E7959F5FC1F70A
:1029A000FE2B880F911D9695879597F9089597F9B5
:1029B0009F6780E870E060E008959FEF80EC0895E5
:1029C00000240A941616170618060906089500240E
:1029D0000A9412161306140605060895092E039488
:1029E000000C11F4882352F0BB0F40F4BF2B11F4FC
:1029F00060FF04C06F5F7F4F8F4F9F4F089557FD5B
:102A00009058440F551F59F05F3F71F04795880F5C
:102A100097FB991F61F09F3F79F0879508951216F3
:102A200013061406551FF2CF4695F1DF08C016169F
:102A300017061806991FF1CF869571056105089450
:102A40000895E894BB2766277727CB0197F9089567
:102A5000A1E21A2EAA1BBB1BFD010DC0AA1FBB1FA2
:102A6000EE1FFF1FA217B307E407F50720F0A21B14
:102A7000B30BE40BF50B661F771F881F991F1A9481
:102A800069F760957095809590959B01AC01BD01AB
:102A9000CF010895052E97FB1EF400940E94611546
:102AA00057FD07D00E94281507FC03D04EF40C9464
:102AB000611550954095309521953F4F4F4F5F4F91
:102AC000089590958095709561957F4F8F4F9F4F9A
:102AD00008950E947415A59F900DB49F900DA49F1A
:102AE000800D911D11240895A29FB001B39FC001D4
:102AF000A39F700D811D1124911DB29F700D811D2A
:102B00001124911D08955058BB27AA270E949B1598
:102B10000C94EE140E94E01438F00E94E71420F0A8
:102B200039F49F3F19F426F40C94DD140EF4E0956B
:102B3000E7FB0C94D714E92F0E94FF1458F3BA173F
:102B4000620773078407950720F079F4A6F50C94C3
:102B500021150EF4E0950B2EBA2FA02D0B01B90113
:102B600090010C01CA01A0011124FF27591B99F003
:102B7000593F50F4503E68F11A16F040A22F232F0F
:102B8000342F4427585FF3CF469537952795A7955F
:102B9000F0405395C9F77EF41F16BA0B620B730B06
:102BA000840BBAF09150A1F0FF0FBB1F661F771F77
:102BB000881FC2F70EC0BA0F621F731F841F48F42C
:102BC000879577956795B795F7959E3F08F0B0CFB5
:102BD0009395880F08F09927EE0F9795879508959C
:102BE0000E9404160C94EE140E94E71458F00E9400
:102BF000E01440F029F45F3F29F00C94D7145111F0
:102C00000C9422150C94DD140E94FF1468F3992390
:102C1000B1F3552391F3951B550BBB27AA276217D8
:102C20007307840738F09F5F5F4F220F331F441FE5
:102C3000AA1FA9F335D00E2E3AF0E0E832D0915019
:102C40005040E695001CCAF72BD0FE2F29D0660F06
:102C5000771F881FBB1F261737074807AB07B0E849
:102C600009F0BB0B802DBF01FF2793585F4F3AF04F
:102C70009E3F510578F00C94D7140C9422155F3FB9
:102C8000E4F3983ED4F3869577956795B795F795D5
:102C90009F5FC9F7880F911D9695879597F90895BD
:102CA000E1E0660F771F881FBB1F62177307840759
:102CB000BA0720F0621B730B840BBA0BEE1F88F768
:102CC000E09508950E94071588F09F5798F0B92F56
:102CD0009927B751B0F0E1F0660F771F881F991F51
:102CE0001AF0BA95C9F714C0B13091F00E942115BD
:102CF000B1E008950C942115672F782F8827B85FCD
:102D000039F0B93FCCF3869577956795B395D9F7A8
:102D10003EF490958095709561957F4F8F4F9F4FB2
:102D200008950E94461408F48FEF08950E944614F7
:102D3000880B990B0895EE0FFF1F0590F491E02D7D
:062D40000994F894FFCF96
:102D4600FF0000400014005400000000006A083A2A
:102D560008110A0F0833081F081008000000006950
:102D6600094401110A3C07000000007D024401AF3E
:102D760001C702E201C001D4010D0A006E616E00B6
:102D8600696E66006F7666005F564D445045005684
:102D96004D4450435F005F564D44504300564D44EA
:102DA60050455F003A323A00564D4450525F007C1F
:102DB600005F564D4450520A0054656D703A20002B
:102DC60048756D69646974793A200025004A657210
:102DD600656D79206C652070656C6F00564D4450AA
:0E2DE600565F317C315F564D4450560A000056
:00000001FF
