:100000000C945C000C946E000C946E000C946E00CA
:100010000C946E000C946E000C946E000C946E00A8
:100020000C946E000C946E000C946E000C946E0098
:100030000C946E000C946E000C946E000C946E0088
:100040000C94D2010C946E000C946E000C946E0013
:100050000C946E000C946E000C946E000C946E0068
:100060000C946E000C946E00000000002400270029
:100070002A0000000000250028002B0004040404CE
:100080000404040402020202020203030303030342
:10009000010204081020408001020408102001021F
:1000A00004081020000000080002010000030407FB
:1000B000000000000000000011241FBECFEFD8E0B8
:1000C000DEBFCDBF21E0A0E0B1E001C01D92A930AC
:1000D000B207E1F70E94C5010C942D020C940000B8
:1000E000089508958330B1F060F08730E9F08830EA
:1000F00009F1843021F5E0E8F0E080818F7D808394
:100100000895813069F0823021F484B58F7D84BDFB
:1001100008950895E0E8F0E080818F778083089566
:1001200084B58F7784BD0895E0EBF0E080818F7710
:1001300080830895E0EBF0E080818F7D80830895D7
:100140001F93CF93DF93282F30E0F901EC55FF4F39
:100150008491F901E057FF4F1491F901E458FF4FE2
:10016000C491CC23A9F0D62F811116C0EC2FF0E05A
:10017000EE0FFF1FEE58FF4FA591B4918FB7F89483
:10018000D1110DC09C91E12FE095E923EC938FBF35
:10019000DF91CF911F9108950E947200E7CFEC91FB
:1001A000E12BEC93F4CFCF93DF9390E0FC01E05789
:1001B000FF4F249184589F4FFC018491882319F1AB
:1001C00090E0880F991FFC01E859FF4FA591B49169
:1001D000FC01EE58FF4FC591D491662349F062307F
:1001E000A9F08FB7F894EC91E22BEC938FBF0BC082
:1001F0009FB7F8948C91E22FE0958E238C938881A1
:10020000E823E8839FBFDF91CF9108959FB7F894CB
:100210003C91822F809583238C93E881E22BE883A5
:100220009FBFF1CF789484B5826084BD84B581602E
:1002300084BD85B5826085BD85B5816085BDEEE6EE
:10024000F0E0808181608083E1E8F0E010828081CD
:1002500082608083808181608083E0E8F0E080813B
:1002600081608083E1EBF0E0808184608083E0EB5B
:10027000F0E0808181608083EAE7F0E08081846043
:10028000808380818260808380818160808380819F
:10029000806880831092C10008953FB7F8948091E0
:1002A000050190910601A0910701B091080126B5C2
:1002B000A89B05C02F3F19F00196A11DB11D3FBF9E
:1002C000BA2FA92F982F8827BC01CD01620F711D6D
:1002D000811D911D660F771F881F991F660F771F5D
:1002E000881F991F08958F929F92AF92BF92CF92CD
:1002F000DF92EF92FF926B017C010E944D014B0156
:100300005C011BC021E0C21AD108E108F10888EEA7
:10031000880E83E0981EA11CB11CC114D104E10415
:10032000F10459F00E944D01681979098A099B0965
:10033000683E73408105910528F7C114D104E1049A
:10034000F10459F7FF90EF90DF90CF90BF90AF90FE
:100350009F908F90089561E08DE00E94A00068EE6C
:1003600073E080E090E00E94730160E08DE00E9405
:10037000A00068EE73E080E090E00E9473010895B1
:1003800061E08DE00E94D30008950E9412010E9456
:10039000C0010E94AB0180E090E0892BD1F30E9464
:1003A0000000F7CF1F920F920FB60F9211240F93F8
:1003B0001F932F933F934F935F936F937F938F93ED
:1003C0009F93AF93BF93009101011091020120917F
:1003D00003013091040190910001B901A8014F5F20
:1003E0005F4F6F4F7F4F83E0890F8D3740F086E876
:1003F000890FB901A8014E5F5F4F6F4F7F4F809308
:100400000001409301015093020160930301709336
:1004100004018091050190910601A0910701B0911E
:1004200008010196A11DB11D80930501909306015D
:10043000A0930701B0930801BF91AF919F918F9155
:100440007F916F915F914F913F912F911F910F91EC
:0E0450000F900FBE0F901F901895F894FFCFDD
:00000001FF
