:100000000C945D000C9485000C9485000C94850084
:100010000C9485000C9485000C9485000C9485004C
:100020000C9485000C9485000C9485000C9485003C
:100030000C9485000C9485000C9485000C9485002C
:100040000C9407040C9485000C94D5030C94AF0316
:100050000C9485000C9485000C9485000C9485000C
:100060000C9485000C94850000000008000201003B
:100070000003040700000000000000000000000072
:10008000250028002B0000000000240027002A0083
:10009000040404040404040402020202020203032E
:1000A0000303030301020408102040800102040836
:1000B0001020010204081020510411241FBECFEFAC
:1000C000D8E0DEBFCDBF11E0A0E0B1E0E2E7F5E1AE
:1000D00002C005900D92A635B107D9F722E0A6E53A
:1000E000B1E001C01D92A035B207E1F710E0CDE507
:1000F000D0E004C02197FE010E94B10ACC35D1079F
:10010000C9F70E9490040C94B70A0C94000090E088
:10011000FC01EC55FF4F249180579F4FFC018491C7
:10012000882399F090E0880F991FFC01EA57FF4F50
:10013000A591B491FC01E458FF4F859194918FB73C
:10014000F894EC91E22BEC938FBF0895AF92BF929D
:10015000CF92DF92EF92FF920F931F93CF93DF9393
:100160006C017B018B01040F151FEB015E01AE18C2
:10017000BF08C017D10759F06991D601ED91FC91E4
:100180000190F081E02DC6010995892B79F7C50111
:10019000DF91CF911F910F91FF90EF90DF90CF9063
:1001A000BF90AF900895FC01538D448D252F30E012
:1001B000842F90E0821B930B541710F0CF96089574
:1001C00001970895FC01918D828D981761F0A28DA1
:1001D000AE0FBF2FB11D5D968C91928D9F5F9F7367
:1001E000928F90E008958FEF9FEF0895FC01918D1D
:1001F000828D981731F0828DE80FF11D858D90E08A
:1002000008958FEF9FEF0895FC01918D228D892F26
:1002100090E0805C9F4F821B91098F73992708950E
:100220008DE691E00E94040121E0892B09F420E091
:10023000822F089580E090E0892B29F00E94100120
:1002400081110C9400000895FC01A48DA80FB92F12
:10025000B11DA35ABF4F2C91848D90E001968F73EE
:100260009927848FA689B7892C93A089B1898C910D
:10027000837080648C93938D848D981306C002885C
:10028000F389E02D80818F7D80830895EF92FF9226
:100290000F931F93CF93DF93EC0181E0888F9B8DA9
:1002A0008C8D98131AC0E889F989808185FF15C063
:1002B0009FB7F894EE89FF896083E889F989808186
:1002C0008370806480839FBF81E090E0DF91CF9155
:1002D0001F910F91FF90EF900895F62E0B8D10E077
:1002E0000F5F1F4F0F731127E02E8C8D8E110CC0E6
:1002F0000FB607FCFACFE889F989808185FFF5CF31
:10030000CE010E942401F1CFEB8DEC0FFD2FF11DEA
:10031000E35AFF4FF0829FB7F8940B8FEA89FB896D
:1003200080818062CFCFCF93DF93EC01888D8823CB
:10033000B9F0AA89BB89E889F9898C9185FD03C048
:10034000808186FD0DC00FB607FCF7CF8C9185FF2D
:10035000F2CF808185FFEDCFCE010E942401E9CF4D
:10036000DF91CF91089590E0FC01E859FF4F24916F
:10037000FC01EC55FF4F3491FC01E057FF4FE49135
:10038000EE23C9F0222339F0233001F1A8F4213003
:1003900019F1223029F1F0E0EE0FFF1FE458FF4F72
:1003A000A591B4918FB7F894EC91611126C0309566
:1003B0003E233C938FBF08952730A9F02830C9F021
:1003C000243049F7809180008F7D03C080918000A8
:1003D0008F7780938000DFCF84B58F7784BDDBCFAC
:1003E00084B58F7DFBCF8091B0008F778093B00074
:1003F000D2CF8091B0008F7DF9CF3E2BDACF1F9303
:10040000CF93DF93182FEB010E948700209739F4D8
:1004100060E0812FDF91CF911F910C94B301CF3F0A
:10042000D10511F461E0F5CFE12FF0E0E859FF4F7D
:10043000E491E33031F140F4E130B1F0E230E1F049
:10044000C038D1057CF7E4CFE73029F1E83059F125
:10045000E430B1F780918000806280938000D09377
:100460008B00C0938A0004C084B5806884BDC7BD7A
:10047000DF91CF911F91089584B5806284BDC8BD7E
:10048000F7CF80918000806880938000D0938900AE
:10049000C0938800EDCF8091B00080688093B00059
:1004A000C093B300E5CF8091B00080628093B0002C
:1004B000C093B400DDCF8E3009F480E08770806493
:1004C00080937C0080917A00806480937A00809190
:1004D0007A0086FDFCCF8091780090917900089594
:1004E0003FB7F89480915B0190915C01A0915D0110
:1004F000B0915E0126B5A89B05C02F3F19F001966B
:10050000A11DB11D3FBFBA2FA92F982F8827BC016D
:10051000CD01620F711D811D911D42E0660F771F95
:10052000881F991F4A95D1F708952FB7F8946091C5
:100530005701709158018091590190915A012FBF34
:1005400008958F929F92AF92BF92CF92DF92EF92D7
:10055000FF926B017C010E9495024B015C01C80C6B
:10056000D91CEA1CFB1C0E949502681579058A05B6
:100570009B0528F0C616D706E806F906A0F7FF90F7
:10058000EF90DF90CF90BF90AF909F908F900895A5
:100590000C94A102CF92DF92EF92FF920F931F93E0
:1005A000811123C00E94950200910C0210910D024E
:1005B00020910E0230910F02DC01CB01801B910BC8
:1005C000A20BB30B82339105A105B10570F402E3D0
:1005D00010E020E030E068017901C81AD90AEA0A7F
:1005E000FB0AC701B6010E94A1020E949502609316
:1005F0000C0270930D0280930E0290930F0281E023
:100600001F910F91FF90EF90DF90CF900895FC0124
:1006100001900020E9F73197AF01481B590BBC014D
:100620008DE691E00C94A6008F929F92AF92BF92BC
:100630000F931F93CF93DF93CDB7DEB7A1970FB67C
:10064000F894DEBF0FBECDBF19A2423008F44AE0D5
:100650008E010F5D1F4F842E912CB12CA12CA50172
:1006600094010E94B209E62FB901CA01EA30F4F4FC
:10067000E05DD801EE938D01232B242B252B79F7F8
:1006800090E080E0109719F0CD010E940703A19639
:100690000FB6F894DEBF0FBECDBFDF91CF911F9193
:1006A0000F91BF90AF909F908F900895E95CE1CF3C
:1006B0000C94070382E191E00E94070385E491E036
:1006C0000C940703CF92DF92EF92FF92CF93DF93C8
:1006D000C82F0E9495026B017C0189E191E00E9484
:1006E00058036C2F70E090E080E04AE00E94140311
:1006F00080E291E00E9458034AE0C701B6010E94DF
:10070000140382E291E00E945803CAE0D2E08E8195
:100710009F81A885B985A7019601281B390B4A0B33
:100720005B0BCA01B9014AE00E94140382E291E026
:100730000E9458036E817F8188859985CA84DB84F5
:10074000EC84FD846C197D098E099F094AE0DF91D4
:10075000CF91FF90EF90DF90CF900C9414031F92F5
:100760000F920FB60F9211242F933F934F935F93E5
:100770006F937F938F939F93AF93BF93EF93FF9369
:100780008DE691E00E942401FF91EF91BF91AF911E
:100790009F918F917F916F915F914F913F912F9199
:1007A0000F900FBE0F901F9018951F920F920FB6CB
:1007B0000F9211242F938F939F93EF93FF93E091C8
:1007C0007D01F0917E018081E0918301F0918401AF
:1007D00082FD1BC09081809186018F5F8F73209175
:1007E0008701821741F0E0918601F0E0E359FE4F66
:1007F000958F80938601FF91EF919F918F912F911B
:100800000F900FBE0F901F9018958081F4CF1F920C
:100810000F920FB60F9211242F933F938F939F93B4
:10082000AF93BF938091570190915801A0915901C6
:10083000B0915A013091560123E0230F2D3758F51E
:100840000196A11DB11D20935601809357019093ED
:100850005801A0935901B0935A0180915B01909186
:100860005C01A0915D01B0915E010196A11DB11DD9
:1008700080935B0190935C01A0935D01B0935E0156
:10088000BF91AF919F918F913F912F910F900FBE8C
:100890000F901F90189526E8230F0296A11DB11DF9
:1008A000D2CFEDE6F1E01382128288EE93E0A0E071
:1008B000B0E084839583A683B78384E091E091833D
:1008C000808385EC90E09587848784EC90E097871F
:1008D000868780EC90E0918B808B81EC90E0938B0D
:1008E000828B82EC90E0958B848B86EC90E0978BEA
:1008F000868B118E128E138E148EEAE0F2E0168231
:10090000178210861186128613861486158616861F
:100910001786108A118A128A138A148A158A0895F2
:10092000789484B5826084BD84B5816084BD85B5CA
:10093000826085BD85B5816085BD80916E008160D6
:1009400080936E001092810080918100826080937C
:10095000810080918100816080938100809180007E
:100960008160809380008091B10084608093B100A9
:100970008091B00081608093B00080917A008460A3
:1009800080937A0080917A00826080937A008091CF
:100990007A00816080937A0080917A0080688093E9
:1009A0007A001092C10010924C0210924D021092E7
:1009B0004E0210924F0210920C0210920D021092F1
:1009C0000E0210920F0268EB7BE080E090E00E9444
:1009D000C8020E9470024B015C0138EEC32E33E066
:1009E000D32EE12CF12C0E947002681979098A0932
:1009F0009B09683E734081059105A8F321E0C21A66
:100A0000D108E108F10848EE840E43E0941EA11CD1
:100A1000B11CC114D104E104F10429F7E0917D0176
:100A2000F0917E0182E08083E0917901F0917A017A
:100A30001082E0917B01F0917C0180E18083109233
:100A40008501E0918101F091820186E08083E0914F
:100A50007F01F0918001808180618083E0917F013E
:100A6000F0918001808188608083E0917F01F09126
:100A70008001808180688083E0917F01F091800116
:100A800080818F7D80830E94950260930C02709319
:100A90000D0280930E0290930F0284E291E00E9477
:100AA00058036AE070E080E090E00E94C80281E0B4
:100AB0008093200280E00E94CA028823F1F086E33E
:100AC00091E00E9458038DE391E00E9458038DE36A
:100AD00091E00E9458038DE391E00E9458038DE35A
:100AE00091E00E9458038FE391E00E9458036AE06E
:100AF00070E080E090E00E94C8028BE00E948700D6
:100B000084EF91E0A0E0B0E0809318029093190286
:100B1000A0931A02B0931B0210921C0210921D02A5
:100B200010921E0210921F028091100290911102E9
:100B3000A0911202B09113028093140290931502B7
:100B4000A0931602B09317020E94950260931002C0
:100B500070931102809312029093130265E070E08B
:100B600080E090E00E94C8026AE070E080E090E0DF
:100B70000E94C80285E6809321028091210283367B
:100B800009F486C0853699F580911C0290911D026A
:100B9000A0911E02B0911F020196A11DB11D80936C
:100BA0001C0290931D02A0931E02B0931F0240915D
:100BB00018025091190260911A0270911B02452B84
:100BC000462B472B21F4892B8A2B8B2B81F480E039
:100BD0000E94CA02882329F082E00E9462030E94D8
:100BE0005A0364EF71E080E090E00E94A1026AE0A5
:100BF00070E080E090E00E94C8028091200288238B
:100C0000D1F18DE691E00E940401882309F4B2CF6E
:100C10008DE691E00E940401882309F4ABCF8DE6B4
:100C200091E00E94E2009C0133272836310519F13A
:100C300024F52835310549F12336310549F781E09E
:100C40000E94CA0288E491E00E9458034AE062E0F0
:100C500070E080E090E00E9414038FE491E00E9435
:100C6000070385E491E00E94070362E370E080E0FF
:100C700090E00E94C80283E67ECF21373105D9F388
:100C80002637310509F477CFC3CF10922002F3CF76
:100C90000E949502609310027093110280931202D9
:100CA000909313028AE00E94870089E00E948700E7
:100CB000CFEFD0E096E0392E24EF422E5524539406
:100CC000612C712C0E9495020091690110916A01BA
:100CD00020916B0130916C01601B710B820B930BA7
:100CE000663971058105910508F45BC00E94950283
:100CF0006093690170936A0180936B0190936C011A
:100D000061E070E080E090E00E94C8020E949502DD
:100D100060930C0270930D0280930E0290930F0269
:100D200086E391E00E9458038DE391E00E9458030E
:100D30008DE391E00E94580310E0812F0E945B0236
:100D40006C01990FEE08FF084AE0C701B601F7FEF3
:100D50000DC06DE28DE691E00E944601662777277F
:100D6000CB016C197D098E099F094AE00E9414038A
:100D700082E291E00E9458031F5F1630F1F68DE386
:100D800091E00E9458038DE391E00E9458038FE3A5
:100D900091E00E94580361E070E080E090E00E94E2
:100DA000C8020E949502672B682B692B09F481C049
:100DB0000E949502009165011091660120916701E2
:100DC00030916801601771078207930708F459C1D1
:100DD00000916501109166012091670130916801D1
:100DE0006B017C01C01AD10AE20AF30A970186015D
:100DF0000A3F11052105310508F463C060936501C0
:100E00007093660180936701909368014092180285
:100E10005092190260921A0270921B0210921C02E8
:100E200010921D0210921E0210921F028091100259
:100E300090911102A0911202B091130280931402BA
:100E400090931502A0931602B09317020E94950288
:100E50006093100270931102809312029093130218
:100E60000E94950260930C0270930D0280930E0213
:100E700090930F0281E00E9462038DE391E00E9453
:100E800058030E9495024AE00E9414030E945A03EC
:100E900065E070E080E090E00E94C8020E94950248
:100EA00060931002709311028093120290931302C8
:100EB00008C00E949502623071058105910508F015
:100EC00077CF8EE00E945B022FEF30E0DC010E94C2
:100ED000AA0A20E034E040E050E00E94D409490131
:100EE0008901B901330F880B990B0E9495086B019A
:100EF0007C0120E030E04AE252E40E948E0818169D
:100F00008CF0D0936401C0936301389CC001399C7C
:100F1000900D112490936201809361011092600101
:100F200010925F0120E030E04AE252E4C701B601CE
:100F30000E94A50A18160CF0ADC0063511050CF07C
:100F4000ADC094012B5231094AEF4203C001439FC7
:100F5000900D112481509F4F909364018093630101
:100F6000D0936201C09361011092600110925F0101
:100F700020E030E04FEF52E4C701B6010E94A50A1D
:100F800018160CF0ABC00B3A11050CF0ABC0109268
:100F900064011092630120E030E04FEF52E4C7019A
:100FA000B6010E94020A20E030E040EC50E40E94CA
:100FB000F4089B01AC0160E070E08FE793E40E94CD
:100FC000020A0E946F0A7093620160936101D093DC
:100FD0006001C0935F0120E030E844E553E4C701BD
:100FE000B6010E94A50A181644F50F3F110509F035
:100FF00024F5D0936401C0936301109262011092B2
:10100000610120E030E844E553E4C701B6010E94E5
:10101000020A20E030E040EC50E40E94F4089B011A
:10102000AC0160E070E08FE793E40E94020A0E9446
:101030006F0A7093600160935F016091630170912A
:1010400064018BE00E94FF0160915F01709160017B
:1010500089E00E94FF0160916101709162018AE064
:101060000E94FF0180E0C82E80E0D82ECD2809F430
:1010700029CE0E941001882309F424CE0E9400008A
:1010800021CE609365017093660180936701909310
:1010900068019ECE063511050CF46ACF20E030E0E1
:1010A0004FEF52E4C701B6010E948E0818160CF4E7
:1010B0005FCF1092640110926301D0936201C093DC
:1010C0006101940125553109329EC001339E900D76
:1010D00011249093600180935F014ACF0B3A110570
:1010E0000CF479CF20E030E844E553E4C701B601C1
:1010F0000E948E0818160CF46ECF8AEA881A91089E
:10110000389CC001399C900D112490936401809308
:101110006301109262011092610159CF0E94D008C0
:1011200008F481E00895E89409C097FB3EF4909597
:101130008095709561957F4F8F4F9F4F9923A9F0B0
:10114000F92F96E9BB279395F6958795779567953F
:10115000B795F111F8CFFAF4BB0F11F460FF1BC083
:101160006F5F7F4F8F4F9F4F16C0882311F096E916
:1011700011C0772321F09EE8872F762F05C06623C4
:1011800071F096E8862F70E060E02AF09A95660F7D
:10119000771F881FDAF7880F9695879597F9089536
:1011A000990F0008550FAA0BE0E8FEEF1616170678
:1011B000E807F907C0F012161306E407F50798F0E0
:1011C000621B730B840B950B39F40A2661F0232BF9
:1011D000242B252B21F408950A2609F4A140A69575
:1011E0008FEF811D811D08950E9407090C947809D5
:1011F0000E946A0938F00E94710920F0952311F0CD
:101200000C9461090C94670911240C94AC090E9498
:10121000890970F3959FC1F3950F50E0551F629FA8
:10122000F001729FBB27F00DB11D639FAA27F00D3F
:10123000B11DAA1F649F6627B00DA11D661F829F66
:101240002227B00DA11D621F739FB00DA11D621F4B
:10125000839FA00D611D221F749F3327A00D611D68
:10126000231F849F600D211D822F762F6A2F11244A
:101270009F5750409AF0F1F088234AF0EE0FFF1F7D
:10128000BB1F661F771F881F91505040A9F79E3FD4
:10129000510580F00C9461090C94AC095F3FE4F3B4
:1012A000983ED4F3869577956795B795F795E7952A
:1012B0009F5FC1F7FE2B880F911D9695879597F933
:1012C000089597F99F6780E870E060E008959FEFC8
:1012D00080EC089500240A941616170618060906CD
:1012E000089500240A94121613061406050608959C
:1012F000092E0394000C11F4882352F0BB0F40F424
:10130000BF2B11F460FF04C06F5F7F4F8F4F9F4F63
:10131000089557FD9058440F551F59F05F3F71F0E5
:101320004795880F97FB991F61F09F3F79F087954C
:101330000895121613061406551FF2CF4695F1DFD5
:1013400008C0161617061806991FF1CF8695710565
:10135000610508940895E894BB2766277727CB0199
:1013600097F90895A1E21A2EAA1BBB1BFD010DC01F
:10137000AA1FBB1FEE1FFF1FA217B307E407F50745
:1013800020F0A21BB30BE40BF50B661F771F881F21
:10139000991F1A9469F760957095809590959B01B7
:1013A000AC01BD01CF010895052E97FB1EF40094FA
:1013B0000E94EB0957FD07D00E94B20907FC03D039
:1013C0004EF40C94EB0950954095309521953F4F84
:1013D0004F4F5F4F089590958095709561957F4F21
:1013E0008F4F9F4F0895A29FB001B39FC001A39F4D
:1013F000700D811D1124911DB29F700D811D11244E
:10140000911D08955058BB27AA270E941A0A0C94D0
:1014100078090E946A0938F00E94710920F039F4B5
:101420009F3F19F426F40C9467090EF4E095E7FB4E
:101430000C946109E92F0E94890958F3BA176207D1
:1014400073078407950720F079F4A6F50C94AB098F
:101450000EF4E0950B2EBA2FA02D0B01B9019001CF
:101460000C01CA01A0011124FF27591B99F0593F13
:1014700050F4503E68F11A16F040A22F232F342F5B
:101480004427585FF3CF469537952795A795F040A9
:101490005395C9F77EF41F16BA0B620B730B840BBE
:1014A000BAF09150A1F0FF0FBB1F661F771F881F76
:1014B000C2F70EC0BA0F621F731F841F48F48795CE
:1014C00077956795B795F7959E3F08F0B0CF9395C0
:1014D000880F08F09927EE0F9795879508950E9439
:1014E000760A6894B1110C94AC0908950E94910990
:1014F00088F09F5798F0B92F9927B751B0F0E1F0D5
:10150000660F771F881F991F1AF0BA95C9F714C084
:10151000B13091F00E94AB09B1E008950C94AB0991
:10152000672F782F8827B85F39F0B93FCCF38695BD
:1015300077956795B395D9F73EF49095809570951A
:1015400061957F4F8F4F9F4F08950E94D00808F4F8
:101550008FEF08950E94F309B7FF0895821B930B44
:101560000895EE0FFF1F0590F491E02D0994F89473
:02157000FFCFAB
:10157200000000004601A600D30093010401E2002E
:10158200F6005F564D44504500564D4450455F00AD
:101592003A323A00564D4450565F317C315F564DD7
:1015A2004450560D0A00564D4450525F007C005F75
:1015B200564D4450520D0A00564D4450435F005F51
:0615C200564D44504300A9
:107E0000112484B714BE81FFF0D085E080938100F7
:107E100082E08093C00088E18093C10086E0809377
:107E2000C20080E18093C4008EE0C9D0259A86E02C
:107E300020E33CEF91E0309385002093840096BBD3
:107E4000B09BFECF1D9AA8958150A9F7CC24DD24C4
:107E500088248394B5E0AB2EA1E19A2EF3E0BF2EE7
:107E6000A2D0813461F49FD0082FAFD0023811F036
:107E7000013811F484E001C083E08DD089C08234E0
:107E800011F484E103C0853419F485E0A6D080C0E4
:107E9000853579F488D0E82EFF2485D0082F10E0AE
:107EA000102F00270E291F29000F111F8ED06801E7
:107EB0006FC0863521F484E090D080E0DECF843638
:107EC00009F040C070D06FD0082F6DD080E0C81688
:107ED00080E7D80618F4F601B7BEE895C0E0D1E017
:107EE00062D089930C17E1F7F0E0CF16F0E7DF06D8
:107EF00018F0F601B7BEE89568D007B600FCFDCFD4
:107F0000A601A0E0B1E02C9130E011968C91119780
:107F100090E0982F8827822B932B1296FA010C0160
:107F200087BEE89511244E5F5F4FF1E0A038BF0790
:107F300051F7F601A7BEE89507B600FCFDCF97BE46
:107F4000E89526C08437B1F42ED02DD0F82E2BD052
:107F50003CD0F601EF2C8F010F5F1F4F84911BD097
:107F6000EA94F801C1F70894C11CD11CFA94CF0C13
:107F7000D11C0EC0853739F428D08EE10CD085E9AC
:107F80000AD08FE07ACF813511F488E018D01DD067
:107F900080E101D065CF982F8091C00085FFFCCF94
:107FA0009093C60008958091C00087FFFCCF809118
:107FB000C00084FD01C0A8958091C6000895E0E648
:107FC000F0E098E1908380830895EDDF803219F02E
:107FD00088E0F5DFFFCF84E1DECF1F93182FE3DFCA
:107FE0001150E9F7F2DF1F91089580E0E8DFEE27F6
:047FF000FF270994CA
:027FFE00040479
:0400000300007E007B
:00000001FF